{
  "_format": "hh-sol-artifact-1",
  "contractName": "PilotLog",
  "sourceName": "contracts/PilotLog.sol",
  "abi": [
    {
      "inputs": [
        {
          "internalType": "string",
          "name": "currentLogbookNewCid",
          "type": "string"
        }
      ],
      "name": "addEntryToCurrentLogbook",
      "outputs": [],
      "stateMutability": "nonpayable",
      "type": "function"
    },
    {
      "inputs": [
        {
          "internalType": "string",
          "name": "currentLogbookNewCid",
          "type": "string"
        },
        {
          "internalType": "address",
          "name": "validator",
          "type": "address"
        }
      ],
      "name": "addEntryWithValidator",
      "outputs": [],
      "stateMutability": "nonpayable",
      "type": "function"
    },
    {
      "inputs": [],
      "name": "closeCurrentLogbook",
      "outputs": [],
      "stateMutability": "nonpayable",
      "type": "function"
    },
    {
      "inputs": [],
      "name": "getEntriesToValidate",
      "outputs": [
        {
          "components": [
            {
              "internalType": "address",
              "name": "logbookOwner",
              "type": "address"
            },
            {
              "internalType": "string",
              "name": "logbookId",
              "type": "string"
            },
            {
              "internalType": "string",
              "name": "entryCid",
              "type": "string"
            },
            {
              "internalType": "address",
              "name": "validator",
              "type": "address"
            },
            {
              "internalType": "bool",
              "name": "isValidated",
              "type": "bool"
            }
          ],
          "internalType": "struct PilotLog.LogbookEntryValidation[]",
          "name": "",
          "type": "tuple[]"
        }
      ],
      "stateMutability": "view",
      "type": "function"
    },
    {
      "inputs": [
        {
          "internalType": "address",
          "name": "logbookOwner",
          "type": "address"
        }
      ],
      "name": "getLogbooks",
      "outputs": [
        {
          "components": [
            {
              "internalType": "uint256",
              "name": "closedBooksCount",
              "type": "uint256"
            },
            {
              "components": [
                {
                  "internalType": "string",
                  "name": "id",
                  "type": "string"
                },
                {
                  "internalType": "string",
                  "name": "lastEntryCid",
                  "type": "string"
                },
                {
                  "internalType": "uint256",
                  "name": "entryValidationCount",
                  "type": "uint256"
                },
                {
                  "components": [
                    {
                      "internalType": "address",
                      "name": "logbookOwner",
                      "type": "address"
                    },
                    {
                      "internalType": "string",
                      "name": "logbookId",
                      "type": "string"
                    },
                    {
                      "internalType": "string",
                      "name": "entryCid",
                      "type": "string"
                    },
                    {
                      "internalType": "address",
                      "name": "validator",
                      "type": "address"
                    },
                    {
                      "internalType": "bool",
                      "name": "isValidated",
                      "type": "bool"
                    }
                  ],
                  "internalType": "struct PilotLog.LogbookEntryValidation[]",
                  "name": "entryValidation",
                  "type": "tuple[]"
                }
              ],
              "internalType": "struct PilotLog.Logbook[]",
              "name": "closedBook",
              "type": "tuple[]"
            },
            {
              "components": [
                {
                  "internalType": "string",
                  "name": "id",
                  "type": "string"
                },
                {
                  "internalType": "string",
                  "name": "lastEntryCid",
                  "type": "string"
                },
                {
                  "internalType": "uint256",
                  "name": "entryValidationCount",
                  "type": "uint256"
                },
                {
                  "components": [
                    {
                      "internalType": "address",
                      "name": "logbookOwner",
                      "type": "address"
                    },
                    {
                      "internalType": "string",
                      "name": "logbookId",
                      "type": "string"
                    },
                    {
                      "internalType": "string",
                      "name": "entryCid",
                      "type": "string"
                    },
                    {
                      "internalType": "address",
                      "name": "validator",
                      "type": "address"
                    },
                    {
                      "internalType": "bool",
                      "name": "isValidated",
                      "type": "bool"
                    }
                  ],
                  "internalType": "struct PilotLog.LogbookEntryValidation[]",
                  "name": "entryValidation",
                  "type": "tuple[]"
                }
              ],
              "internalType": "struct PilotLog.Logbook",
              "name": "openBook",
              "type": "tuple"
            }
          ],
          "internalType": "struct PilotLog.UserLogbooksInfo",
          "name": "",
          "type": "tuple"
        }
      ],
      "stateMutability": "view",
      "type": "function"
    },
    {
      "inputs": [
        {
          "internalType": "address",
          "name": "logbookOwner",
          "type": "address"
        }
      ],
      "name": "getProfile",
      "outputs": [
        {
          "components": [
            {
              "internalType": "string",
              "name": "profileCid",
              "type": "string"
            },
            {
              "internalType": "enum PilotLog.UserType",
              "name": "userType",
              "type": "uint8"
            }
          ],
          "internalType": "struct PilotLog.User",
          "name": "",
          "type": "tuple"
        }
      ],
      "stateMutability": "view",
      "type": "function"
    },
    {
      "inputs": [],
      "name": "getSenderAddress",
      "outputs": [
        {
          "internalType": "address",
          "name": "",
          "type": "address"
        }
      ],
      "stateMutability": "view",
      "type": "function"
    },
    {
      "inputs": [
        {
          "internalType": "address",
          "name": "_user",
          "type": "address"
        }
      ],
      "name": "getUserProfile",
      "outputs": [
        {
          "components": [
            {
              "internalType": "string",
              "name": "profileCid",
              "type": "string"
            },
            {
              "internalType": "enum PilotLog.UserType",
              "name": "userType",
              "type": "uint8"
            }
          ],
          "internalType": "struct PilotLog.User",
          "name": "",
          "type": "tuple"
        }
      ],
      "stateMutability": "view",
      "type": "function"
    },
    {
      "inputs": [],
      "name": "getValidatedEntries",
      "outputs": [
        {
          "components": [
            {
              "internalType": "address",
              "name": "logbookOwner",
              "type": "address"
            },
            {
              "internalType": "string",
              "name": "logbookId",
              "type": "string"
            },
            {
              "internalType": "string",
              "name": "entryCid",
              "type": "string"
            },
            {
              "internalType": "address",
              "name": "validator",
              "type": "address"
            },
            {
              "internalType": "bool",
              "name": "isValidated",
              "type": "bool"
            }
          ],
          "internalType": "struct PilotLog.LogbookEntryValidation[]",
          "name": "",
          "type": "tuple[]"
        }
      ],
      "stateMutability": "view",
      "type": "function"
    },
    {
      "inputs": [
        {
          "internalType": "address",
          "name": "newAllowedAddress",
          "type": "address"
        }
      ],
      "name": "giveLogbookPermission",
      "outputs": [],
      "stateMutability": "nonpayable",
      "type": "function"
    },
    {
      "inputs": [],
      "name": "promoteToSigner",
      "outputs": [],
      "stateMutability": "nonpayable",
      "type": "function"
    },
    {
      "inputs": [
        {
          "internalType": "string",
          "name": "_profileCid",
          "type": "string"
        },
        {
          "internalType": "enum PilotLog.UserType",
          "name": "_userType",
          "type": "uint8"
        }
      ],
      "name": "registerProfile",
      "outputs": [],
      "stateMutability": "nonpayable",
      "type": "function"
    },
    {
      "inputs": [
        {
          "internalType": "address",
          "name": "revokedAddress",
          "type": "address"
        }
      ],
      "name": "revokeLogbookPermission",
      "outputs": [],
      "stateMutability": "nonpayable",
      "type": "function"
    },
    {
      "inputs": [
        {
          "internalType": "address",
          "name": "logbookOwner",
          "type": "address"
        },
        {
          "internalType": "string",
          "name": "logbookId",
          "type": "string"
        },
        {
          "internalType": "string",
          "name": "validationCid",
          "type": "string"
        }
      ],
      "name": "validateEntry",
      "outputs": [],
      "stateMutability": "nonpayable",
      "type": "function"
    }
  ],
  "bytecode": "0x6080604052348015600f57600080fd5b50611a938061001f6000396000f3fe608060405234801561001057600080fd5b50600436106100ea5760003560e01c8063987ee1561161008c578063bc569f0711610066578063bc569f071461020c578063d604363e1461021f578063f37d3efa14610231578063fff2dee41461023157600080fd5b8063987ee156146101b2578063a1f16ca0146101c5578063b672140d146101cd57600080fd5b806351cb4a79116100c857806351cb4a791461013b57806358b0126c1461014357806363ca50571461017f57806363e0b4c41461019257600080fd5b80630f53a470146100ef578063309f9caf1461011857806342948e181461012d575b600080fd5b6101026100fd3660046111cc565b610240565b60405161010f919061124a565b60405180910390f35b61012b6101263660046112e4565b6103c8565b005b60405133815260200161010f565b61012b61050d565b61012b6101513660046111cc565b3360009081526002602090815260408083206001600160a01b0394909416835292905220805460ff19169055565b61012b61018d36600461133f565b61060e565b6101a56101a03660046111cc565b610671565b60405161010f919061147f565b6101026101c03660046111cc565b610d78565b61012b610e6b565b61012b6101db3660046111cc565b3360009081526002602090815260408083206001600160a01b0394909416835292905220805460ff19166001179055565b61012b61021a3660046115ba565b505050565b61012b61022d366004611633565b5050565b606060405161010f9190611681565b610248610fcf565b81336001600160a01b0382161480159061028b57506001600160a01b038116600090815260026020908152604080832033845290915290205460ff161515600114155b156102da5760408051808201909152601081526f155cd95c881b9bdd08185b1b1bddd95960821b60208201525b60405162461bcd60e51b81526004016102d19190611741565b60405180910390fd5b6001600160a01b03831660009081526020819052604090819020815180830190925280548290829061030b90611754565b80601f016020809104026020016040519081016040528092919081815260200182805461033790611754565b80156103845780601f1061035957610100808354040283529160200191610384565b820191906000526020600020905b81548152906001019060200180831161036757829003601f168201915b5050509183525050600182015460209091019060ff1660028111156103ab576103ab611234565b60028111156103bc576103bc611234565b90525091505b50919050565b336000908152602081905260409020805461047a91906103e790611754565b80601f016020809104026020016040519081016040528092919081815260200182805461041390611754565b80156104605780601f1061043557610100808354040283529160200191610460565b820191906000526020600020905b81548152906001019060200180831161044357829003601f168201915b505050505060405180602001604052806000815250610f35565b6104b75760408051808201909152601781527f5573657220616c7265616479207265676973746572656400000000000000000060208201526102b8565b3360009081526020819052604090206104d18385836117eb565b5033600090815260208190526040902060019081018054839260ff199091169083600281111561050357610503611234565b0217905550505050565b336000908152600160208181526040832080830180549384018155845292206002909201916004909102018061054383826118a5565b50600181810190610556908401826118a5565b50600282015481600201556003820181600301908054610577929190610fe9565b50503360009081526001602081905260409091205461059792509061197c565b33600081815260016020818152604080842095865580518083019091528381529390925290526002909101906105cd908261199d565b5060408051602080820183526000808352338152600190915291909120600301906105f8908261199d565b5033600090815260016020526040812060040155565b336000908152600160205260409020600201805461063091906103e790611754565b15610654573360009081526001602052604090206002016106528284836117eb565b505b33600090815260016020526040902060030161021a8284836117eb565b6106796110cc565b81336001600160a01b038216148015906106bc57506001600160a01b038116600090815260026020908152604080832033845290915290205460ff161515600114155b156106ed5760408051808201909152601081526f155cd95c881b9bdd08185b1b1bddd95960821b60208201526102b8565b6001600160a01b0383166000908152600160208181526040808420815160608101835281548152938101805483518186028101860190945280845294959194868501949192909184015b82821015610a60578382906000526020600020906004020160405180608001604052908160008201805461076a90611754565b80601f016020809104026020016040519081016040528092919081815260200182805461079690611754565b80156107e35780601f106107b8576101008083540402835291602001916107e3565b820191906000526020600020905b8154815290600101906020018083116107c657829003601f168201915b505050505081526020016001820180546107fc90611754565b80601f016020809104026020016040519081016040528092919081815260200182805461082890611754565b80156108755780601f1061084a57610100808354040283529160200191610875565b820191906000526020600020905b81548152906001019060200180831161085857829003601f168201915b505050505081526020016002820154815260200160038201805480602002602001604051908101604052809291908181526020016000905b82821015610a495760008481526020908190206040805160a081019091526004850290910180546001600160a01b0316825260018101805492939192918401916108f690611754565b80601f016020809104026020016040519081016040528092919081815260200182805461092290611754565b801561096f5780601f106109445761010080835404028352916020019161096f565b820191906000526020600020905b81548152906001019060200180831161095257829003601f168201915b5050505050815260200160028201805461098890611754565b80601f01602080910402602001604051908101604052809291908181526020018280546109b490611754565b8015610a015780601f106109d657610100808354040283529160200191610a01565b820191906000526020600020905b8154815290600101906020018083116109e457829003601f168201915b5050509183525050600391909101546001600160a01b038116602080840191909152600160a01b90910460ff16151560409092019190915290825260019290920191016108ad565b505050508152505081526020019060010190610737565b50505050815260200160028201604051806080016040529081600082018054610a8890611754565b80601f0160208091040260200160405190810160405280929190818152602001828054610ab490611754565b8015610b015780601f10610ad657610100808354040283529160200191610b01565b820191906000526020600020905b815481529060010190602001808311610ae457829003601f168201915b50505050508152602001600182018054610b1a90611754565b80601f0160208091040260200160405190810160405280929190818152602001828054610b4690611754565b8015610b935780601f10610b6857610100808354040283529160200191610b93565b820191906000526020600020905b815481529060010190602001808311610b7657829003601f168201915b505050505081526020016002820154815260200160038201805480602002602001604051908101604052809291908181526020016000905b82821015610d675760008481526020908190206040805160a081019091526004850290910180546001600160a01b031682526001810180549293919291840191610c1490611754565b80601f0160208091040260200160405190810160405280929190818152602001828054610c4090611754565b8015610c8d5780601f10610c6257610100808354040283529160200191610c8d565b820191906000526020600020905b815481529060010190602001808311610c7057829003601f168201915b50505050508152602001600282018054610ca690611754565b80601f0160208091040260200160405190810160405280929190818152602001828054610cd290611754565b8015610d1f5780601f10610cf457610100808354040283529160200191610d1f565b820191906000526020600020905b815481529060010190602001808311610d0257829003601f168201915b5050509183525050600391909101546001600160a01b038116602080840191909152600160a01b90910460ff1615156040909201919091529082526001929092019101610bcb565b505050915250509052509392505050565b610d80610fcf565b6001600160a01b038216600090815260208190526040908190208151808301909252805482908290610db190611754565b80601f0160208091040260200160405190810160405280929190818152602001828054610ddd90611754565b8015610e2a5780601f10610dff57610100808354040283529160200191610e2a565b820191906000526020600020905b815481529060010190602001808311610e0d57829003601f168201915b5050509183525050600182015460209091019060ff166002811115610e5157610e51611234565b6002811115610e6257610e62611234565b90525092915050565b3360009081526020819052604090208054610e8a91906103e790611754565b15610ebe57604080518082019091526013815272155cd95c881b9bdd081c9959da5cdd195c9959606a1b60208201526102b8565b3360009081526020819052604081206001015460ff166002811115610ee557610ee5611234565b14610f145760408051808201909152600e81526d155cd95c881b9bdd081c1a5b1bdd60921b60208201526102b8565b3360009081526020819052604090206001908101805460ff19169091179055565b8151815160009184918491908114610f535760009350505050610fc9565b60005b81811015610fc057828181518110610f7057610f70611a47565b602001015160f81c60f81b6001600160f81b031916848281518110610f9757610f97611a47565b01602001516001600160f81b03191614610fb8576000945050505050610fc9565b600101610f56565b50600193505050505b92915050565b60408051808201909152606081526020810160005b905290565b8280548282559060005260206000209060040281019282156110bc5760005260206000209160040282015b828111156110bc57825482546001600160a01b0319166001600160a01b03909116178255828260018082019061104c908401826118a5565b5060028181019061105f908401826118a5565b50600391820180549190920180546001600160a01b039092166001600160a01b031983168117825592546001600160a81b0319909216909217600160a01b9182900460ff1615159091021790556004928301929190910190611014565b506110c8929150611110565b5090565b60405180606001604052806000815260200160608152602001610fe46040518060800160405280606081526020016060815260200160008152602001606081525090565b808211156110c85780546001600160a01b03191681556000611135600183018261115e565b61114360028301600061115e565b506003810180546001600160a81b0319169055600401611110565b50805461116a90611754565b6000825580601f1061117a575050565b601f016020900490600052602060002090810190611198919061119b565b50565b5b808211156110c8576000815560010161119c565b80356001600160a01b03811681146111c757600080fd5b919050565b6000602082840312156111de57600080fd5b6111e7826111b0565b9392505050565b6000815180845260005b81811015611214576020818501810151868301820152016111f8565b506000602082860101526020601f19601f83011685010191505092915050565b634e487b7160e01b600052602160045260246000fd5b60208152600082516040602084015261126660608401826111ee565b905060208401516003811061128b57634e487b7160e01b600052602160045260246000fd5b6040939093019290925250919050565b60008083601f8401126112ad57600080fd5b50813567ffffffffffffffff8111156112c557600080fd5b6020830191508360208285010111156112dd57600080fd5b9250929050565b6000806000604084860312156112f957600080fd5b833567ffffffffffffffff81111561131057600080fd5b61131c8682870161129b565b90945092505060208401356003811061133457600080fd5b809150509250925092565b6000806020838503121561135257600080fd5b823567ffffffffffffffff81111561136957600080fd5b6113758582860161129b565b90969095509350505050565b600081516080845261139660808501826111ee565b9050602083015184820360208601526113af82826111ee565b915050604083015160408501526060830151848203606086015281815180845260208401915060208160051b85010160208401935060005b8281101561147357858203601f19018452845180516001600160a01b0316835260208082015160a091850182905290611422908501826111ee565b90506040820151848203604086015261143b82826111ee565b6060848101516001600160a01b03169087015260809384015115159390950192909252505060209485019493909301926001016113e7565b50979650505050505050565b602081526000608082018351602084015260208401516060604085015281815180845260a08601915060a08160051b870101935060208301925060005b818110156114ed57609f198786030183526114d8858551611381565b945060209384019392909201916001016114bc565b505050506040840151838203601f1901606085015261150c8282611381565b95945050505050565b634e487b7160e01b600052604160045260246000fd5b600082601f83011261153c57600080fd5b813567ffffffffffffffff81111561155657611556611515565b604051601f8201601f19908116603f0116810167ffffffffffffffff8111828210171561158557611585611515565b60405281815283820160200185101561159d57600080fd5b816020850160208301376000918101602001919091529392505050565b6000806000606084860312156115cf57600080fd5b6115d8846111b0565b9250602084013567ffffffffffffffff8111156115f457600080fd5b6116008682870161152b565b925050604084013567ffffffffffffffff81111561161d57600080fd5b6116298682870161152b565b9150509250925092565b6000806040838503121561164657600080fd5b823567ffffffffffffffff81111561165d57600080fd5b6116698582860161152b565b925050611678602084016111b0565b90509250929050565b6000602082016020835280845180835260408501915060408160051b86010192506020860160005b8281101561173557868503603f19018452815180516001600160a01b0316865260208082015160a0918801829052906116e4908801826111ee565b9050604082015187820360408901526116fd82826111ee565b6060848101516001600160a01b0316908a015260809384015115159390980192909252505060209384019391909101906001016116a9565b50929695505050505050565b6020815260006111e760208301846111ee565b600181811c9082168061176857607f821691505b6020821081036103c257634e487b7160e01b600052602260045260246000fd5b601f82111561021a57806000526020600020601f840160051c810160208510156117af5750805b601f840160051c820191505b818110156117cf57600081556001016117bb565b5050505050565b600019600383901b1c191660019190911b1790565b67ffffffffffffffff83111561180357611803611515565b611817836118118354611754565b83611788565b6000601f84116001811461184557600085156118335750838201355b61183d86826117d6565b8455506117cf565b600083815260209020601f19861690835b828110156118765786850135825560209485019460019092019101611856565b50868210156118935760001960f88860031b161c19848701351681555b505060018560011b0183555050505050565b8181036118b0575050565b6118ba8254611754565b67ffffffffffffffff8111156118d2576118d2611515565b6118e6816118e08454611754565b84611788565b6000601f82116001811461191457600083156119025750848201545b61190c84826117d6565b8555506117cf565b600085815260209020601f19841690600086815260209020845b8381101561194e578286015482556001958601959091019060200161192e565b508583101561196c5781850154600019600388901b60f8161c191681555b5050505050600190811b01905550565b80820180821115610fc957634e487b7160e01b600052601160045260246000fd5b815167ffffffffffffffff8111156119b7576119b7611515565b6119c5816118e08454611754565b6020601f8211600181146119ea576000831561190257508482015161190c84826117d6565b600084815260208120601f198516915b82811015611a1a57878501518255602094850194600190920191016119fa565b5084821015611a385786840151600019600387901b60f8161c191681555b50505050600190811b01905550565b634e487b7160e01b600052603260045260246000fdfea2646970667358221220aa3fc143c7b8e1c5183b392e5c8c050dd33061b79e949d1a0f8a2e62a7774f4164736f6c634300081a0033",
  "linkReferences": {},
  "deployedLinkReferences": {}
}