{
  "_format": "hh-sol-artifact-1",
  "contractName": "PilotLog",
  "sourceName": "contracts/PilotLog.sol",
  "abi": [
    {
      "inputs": [
        {
          "internalType": "address",
          "name": "_user",
          "type": "address"
        }
      ],
      "name": "getUserProfile",
      "outputs": [
        {
          "components": [
            {
              "internalType": "string",
              "name": "profileCid",
              "type": "string"
            },
            {
              "internalType": "enum PilotLog.UserType",
              "name": "userType",
              "type": "uint8"
            }
          ],
          "internalType": "struct PilotLog.User",
          "name": "",
          "type": "tuple"
        }
      ],
      "stateMutability": "view",
      "type": "function"
    },
    {
      "inputs": [],
      "name": "promoteToSigner",
      "outputs": [],
      "stateMutability": "nonpayable",
      "type": "function"
    },
    {
      "inputs": [
        {
          "internalType": "string",
          "name": "_profileCid",
          "type": "string"
        },
        {
          "internalType": "enum PilotLog.UserType",
          "name": "_userType",
          "type": "uint8"
        }
      ],
      "name": "registerProfile",
      "outputs": [],
      "stateMutability": "nonpayable",
      "type": "function"
    },
    {
      "inputs": [
        {
          "internalType": "address",
          "name": "",
          "type": "address"
        }
      ],
      "name": "userProfiles",
      "outputs": [
        {
          "internalType": "string",
          "name": "profileCid",
          "type": "string"
        },
        {
          "internalType": "enum PilotLog.UserType",
          "name": "userType",
          "type": "uint8"
        }
      ],
      "stateMutability": "view",
      "type": "function"
    }
  ],
  "bytecode": "0x6080604052348015600f57600080fd5b506108c58061001f6000396000f3fe608060405234801561001057600080fd5b506004361061004c5760003560e01c8063309f9caf14610051578063332d56d714610066578063987ee15614610090578063a1f16ca0146100b0575b600080fd5b61006461005f366004610576565b6100b8565b005b610079610074366004610600565b61026b565b6040516100879291906106ae565b60405180910390f35b6100a361009e366004610600565b610312565b60405161008791906106d0565b610064610412565b336000908152602081905260409020805461016a91906100d790610708565b80601f016020809104026020016040519081016040528092919081815260200182805461010390610708565b80156101505780601f1061012557610100808354040283529160200191610150565b820191906000526020600020905b81548152906001019060200180831161013357829003601f168201915b5050505050604051806020016040528060008152506104dc565b6101c55760408051808201909152601781527f5573657220616c7265616479207265676973746572656400000000000000000060208201525b60405162461bcd60e51b81526004016101bc9190610742565b60405180910390fd5b6040805160606020601f8601819004028201810183529181018481529091829190869086908190850183828082843760009201919091525050509082525060200182600281111561021857610218610676565b90523360009081526020819052604090208151819061023790826107ba565b50602082015160018083018054909160ff199091169083600281111561025f5761025f610676565b02179055505050505050565b60006020819052908152604090208054819061028690610708565b80601f01602080910402602001604051908101604052809291908181526020018280546102b290610708565b80156102ff5780601f106102d4576101008083540402835291602001916102ff565b820191906000526020600020905b8154815290600101906020018083116102e257829003601f168201915b5050506001909301549192505060ff1682565b6040805180820190915260608152600060208201526001600160a01b03821660009081526020819052604090819020815180830190925280548290829061035890610708565b80601f016020809104026020016040519081016040528092919081815260200182805461038490610708565b80156103d15780601f106103a6576101008083540402835291602001916103d1565b820191906000526020600020905b8154815290600101906020018083116103b457829003601f168201915b5050509183525050600182015460209091019060ff1660028111156103f8576103f8610676565b600281111561040957610409610676565b90525092915050565b336000908152602081905260409020805461043191906100d790610708565b1561046557604080518082019091526013815272155cd95c881b9bdd081c9959da5cdd195c9959606a1b60208201526101a3565b3360009081526020819052604081206001015460ff16600281111561048c5761048c610676565b146104bb5760408051808201909152600e81526d155cd95c881b9bdd081c1a5b1bdd60921b60208201526101a3565b3360009081526020819052604090206001908101805460ff19169091179055565b81518151600091849184919081146104fa5760009350505050610570565b60005b818110156105675782818151811061051757610517610879565b602001015160f81c60f81b6001600160f81b03191684828151811061053e5761053e610879565b01602001516001600160f81b0319161461055f576000945050505050610570565b6001016104fd565b50600193505050505b92915050565b60008060006040848603121561058b57600080fd5b833567ffffffffffffffff8111156105a257600080fd5b8401601f810186136105b357600080fd5b803567ffffffffffffffff8111156105ca57600080fd5b8660208284010111156105dc57600080fd5b602091820194509250840135600381106105f557600080fd5b809150509250925092565b60006020828403121561061257600080fd5b81356001600160a01b038116811461062957600080fd5b9392505050565b6000815180845260005b818110156106565760208185018101518683018201520161063a565b506000602082860101526020601f19601f83011685010191505092915050565b634e487b7160e01b600052602160045260246000fd5b600381106106aa57634e487b7160e01b600052602160045260246000fd5b9052565b6040815260006106c16040830185610630565b9050610629602083018461068c565b6020815260008251604060208401526106ec6060840182610630565b90506020840151610700604085018261068c565b509392505050565b600181811c9082168061071c57607f821691505b60208210810361073c57634e487b7160e01b600052602260045260246000fd5b50919050565b6020815260006106296020830184610630565b634e487b7160e01b600052604160045260246000fd5b601f8211156107b557806000526020600020601f840160051c810160208510156107925750805b601f840160051c820191505b818110156107b2576000815560010161079e565b50505b505050565b815167ffffffffffffffff8111156107d4576107d4610755565b6107e8816107e28454610708565b8461076b565b6020601f82116001811461081c57600083156108045750848201515b600019600385901b1c1916600184901b1784556107b2565b600084815260208120601f198516915b8281101561084c578785015182556020948501946001909201910161082c565b508482101561086a5786840151600019600387901b60f8161c191681555b50505050600190811b01905550565b634e487b7160e01b600052603260045260246000fdfea264697066735822122063d652c835a73a451917d163083e53eee1b8b0195d3b0aba352b2d999ec7720964736f6c634300081a0033",
  "linkReferences": {},
  "deployedLinkReferences": {}
}