{"contracts/PilotLog.sol":{"PilotLog":{"abi":[{"inputs":[{"internalType":"string","name":"currentLogbookNewCid","type":"string"}],"name":"addEntryToCurrentLogbook","outputs":[],"stateMutability":"nonpayable","type":"function"},{"inputs":[{"internalType":"string","name":"_currentLogbookNewCid","type":"string"},{"internalType":"address","name":"_validator","type":"address"}],"name":"addEntryWithValidator","outputs":[],"stateMutability":"nonpayable","type":"function"},{"inputs":[],"name":"closeCurrentLogbook","outputs":[],"stateMutability":"nonpayable","type":"function"},{"inputs":[],"name":"getAllowedPilotProfiles","outputs":[{"components":[{"internalType":"string","name":"profileCid","type":"string"},{"internalType":"enum PilotLog.UserType","name":"userType","type":"uint8"},{"internalType":"address","name":"userAddr","type":"address"}],"internalType":"struct PilotLog.User[]","name":"","type":"tuple[]"}],"stateMutability":"view","type":"function"},{"inputs":[],"name":"getEntriesToValidate","outputs":[{"components":[{"internalType":"address","name":"logbookOwner","type":"address"},{"internalType":"string","name":"logbookId","type":"string"},{"internalType":"string","name":"entryCid","type":"string"},{"internalType":"address","name":"validator","type":"address"},{"internalType":"bool","name":"isValidated","type":"bool"}],"internalType":"struct PilotLog.LogbookEntryValidation[]","name":"","type":"tuple[]"}],"stateMutability":"view","type":"function"},{"inputs":[],"name":"getGrantedPermissionsToOthers","outputs":[{"components":[{"internalType":"string","name":"profileCid","type":"string"},{"internalType":"enum PilotLog.UserType","name":"userType","type":"uint8"},{"internalType":"address","name":"userAddr","type":"address"}],"internalType":"struct PilotLog.User[]","name":"","type":"tuple[]"}],"stateMutability":"view","type":"function"},{"inputs":[{"internalType":"address","name":"logbookOwner","type":"address"}],"name":"getLogbooks","outputs":[{"components":[{"internalType":"uint256","name":"closedBooksCount","type":"uint256"},{"components":[{"internalType":"string","name":"id","type":"string"},{"internalType":"string","name":"lastEntryCid","type":"string"},{"internalType":"uint256","name":"entryValidationCount","type":"uint256"},{"components":[{"internalType":"address","name":"logbookOwner","type":"address"},{"internalType":"string","name":"logbookId","type":"string"},{"internalType":"string","name":"entryCid","type":"string"},{"internalType":"address","name":"validator","type":"address"},{"internalType":"bool","name":"isValidated","type":"bool"}],"internalType":"struct PilotLog.LogbookEntryValidation[]","name":"entryValidation","type":"tuple[]"}],"internalType":"struct PilotLog.Logbook[]","name":"closedBook","type":"tuple[]"},{"components":[{"internalType":"string","name":"id","type":"string"},{"internalType":"string","name":"lastEntryCid","type":"string"},{"internalType":"uint256","name":"entryValidationCount","type":"uint256"},{"components":[{"internalType":"address","name":"logbookOwner","type":"address"},{"internalType":"string","name":"logbookId","type":"string"},{"internalType":"string","name":"entryCid","type":"string"},{"internalType":"address","name":"validator","type":"address"},{"internalType":"bool","name":"isValidated","type":"bool"}],"internalType":"struct PilotLog.LogbookEntryValidation[]","name":"entryValidation","type":"tuple[]"}],"internalType":"struct PilotLog.Logbook","name":"openBook","type":"tuple"}],"internalType":"struct PilotLog.UserLogbooksInfo","name":"","type":"tuple"}],"stateMutability":"view","type":"function"},{"inputs":[{"internalType":"address","name":"logbookOwner","type":"address"}],"name":"getProfile","outputs":[{"components":[{"internalType":"string","name":"profileCid","type":"string"},{"internalType":"enum PilotLog.UserType","name":"userType","type":"uint8"},{"internalType":"address","name":"userAddr","type":"address"}],"internalType":"struct PilotLog.User","name":"","type":"tuple"}],"stateMutability":"view","type":"function"},{"inputs":[],"name":"getSenderAddress","outputs":[{"internalType":"address","name":"","type":"address"}],"stateMutability":"view","type":"function"},{"inputs":[{"internalType":"address","name":"_user","type":"address"}],"name":"getUserProfile","outputs":[{"components":[{"internalType":"string","name":"profileCid","type":"string"},{"internalType":"enum PilotLog.UserType","name":"userType","type":"uint8"},{"internalType":"address","name":"userAddr","type":"address"}],"internalType":"struct PilotLog.User","name":"","type":"tuple"}],"stateMutability":"view","type":"function"},{"inputs":[],"name":"getValidatedEntries","outputs":[{"components":[{"internalType":"address","name":"logbookOwner","type":"address"},{"internalType":"string","name":"logbookId","type":"string"},{"internalType":"string","name":"entryCid","type":"string"},{"internalType":"address","name":"validator","type":"address"},{"internalType":"bool","name":"isValidated","type":"bool"}],"internalType":"struct PilotLog.LogbookEntryValidation[]","name":"","type":"tuple[]"}],"stateMutability":"view","type":"function"},{"inputs":[{"internalType":"address","name":"newAllowedAddress","type":"address"}],"name":"giveLogbookPermission","outputs":[],"stateMutability":"nonpayable","type":"function"},{"inputs":[],"name":"promoteToSigner","outputs":[],"stateMutability":"nonpayable","type":"function"},{"inputs":[{"internalType":"string","name":"_profileCid","type":"string"},{"internalType":"enum PilotLog.UserType","name":"_userType","type":"uint8"}],"name":"registerProfile","outputs":[],"stateMutability":"nonpayable","type":"function"},{"inputs":[{"internalType":"address","name":"revokedAddress","type":"address"}],"name":"revokeLogbookPermission","outputs":[],"stateMutability":"nonpayable","type":"function"},{"inputs":[{"internalType":"address","name":"_logbookOwner","type":"address"},{"internalType":"string","name":"_logbookId","type":"string"},{"internalType":"string","name":"_validationCid","type":"string"}],"name":"validateEntry","outputs":[],"stateMutability":"nonpayable","type":"function"}],"evm":{"bytecode":{"linkReferences":{},"object":"6080604052348015600f57600080fd5b506132188061001f6000396000f3fe608060405234801561001057600080fd5b50600436106101005760003560e01c806363e0b4c411610097578063bc569f0711610066578063bc569f07146101ea578063d604363e146101fd578063f37d3efa14610210578063fff2dee41461022557600080fd5b806363e0b4c41461019c578063987ee156146101bc578063a1f16ca0146101cf578063b672140d146101d757600080fd5b80634faf9cad116100d35780634faf9cad1461016657806351cb4a791461016e57806358b0126c1461017657806363ca50571461018957600080fd5b80630f53a470146101055780632044baea1461012e578063309f9caf1461014357806342948e1814610158575b600080fd5b61011861011336600461296b565b61022d565b6040516101259190612a3c565b60405180910390f35b6101366103e5565b6040516101259190612a4f565b610156610151366004612afc565b61045d565b005b604051338152602001610125565b6101366105cd565b610156610652565b61015661018436600461296b565b6107ce565b610156610197366004612b56565b61087c565b6101af6101aa36600461296b565b61094d565b6040516101259190612ca8565b6101186101ca36600461296b565b611054565b610156611177565b6101566101e536600461296b565b611241565b6101566101f8366004612dd8565b61133f565b61015661020b366004612e4f565b6113e3565b610218611721565b6040516101259190612e9c565b610218611a52565b604080516060808201835281526000602082018190529181019190915281336001600160a01b0382161480159061028d57503360009081526002602090815260408083206001600160a01b038516845290915290205460ff161515600114155b156102dc5760408051808201909152601081526f155cd95c881b9bdd08185b1b1bddd95960821b60208201525b60405162461bcd60e51b81526004016102d39190612eaf565b60405180910390fd5b6001600160a01b0383166000908152602081905260409081902081516060810190925280548290829061030e90612ec2565b80601f016020809104026020016040519081016040528092919081815260200182805461033a90612ec2565b80156103875780601f1061035c57610100808354040283529160200191610387565b820191906000526020600020905b81548152906001019060200180831161036a57829003601f168201915b5050509183525050600182015460209091019060ff1660028111156103ae576103ae6129cc565b60028111156103bf576103bf6129cc565b81526001919091015461010090046001600160a01b031660209091015291505b50919050565b606060023360009081526020819052604090206001015460ff166002811115610410576104106129cc565b146104405760408051808201909152600f81526e55736572206e6f7420656e7469747960881b60208201526102ba565b33600090815260026020526040902061045890611d7d565b905090565b336000908152602081905260409020805461050f919061047c90612ec2565b80601f01602080910402602001604051908101604052809291908181526020018280546104a890612ec2565b80156104f55780601f106104ca576101008083540402835291602001916104f5565b820191906000526020600020905b8154815290600101906020018083116104d857829003601f168201915b505050505060405180602001604052806000815250611fef565b61054c5760408051808201909152601781527f5573657220616c7265616479207265676973746572656400000000000000000060208201526102ba565b336000908152602081905260409020610566838583612f52565b5033600090815260208190526040902060019081018054839260ff1990911690836002811115610598576105986129cc565b0217905550503360008181526020819052604090206001018054610100600160a81b0319166101009092029190911790555050565b606060003360009081526020819052604090206001015460ff1660028111156105f8576105f86129cc565b1415801561062d575060013360009081526020819052604090206001015460ff16600281111561062a5761062a6129cc565b14155b1561063a576102ba612089565b33600090815260036020526040902061045890611d7d565b3360009081526020819052604081206001015460ff166002811115610679576106796129cc565b141580156106ae575060013360009081526020819052604090206001015460ff1660028111156106ab576106ab6129cc565b14155b156106bb576102ba612089565b33600090815260016020818152604083208083018054938401815584529220600290920191600490910201806106f1838261300b565b506001818101906107049084018261300b565b50600282015481600201556003820181600301908054610725929190612724565b5050336000908152600160208190526040909120546107459250906130f7565b336000818152600160208181526040808420958655805180830190915283815293909252905260029091019061077b908261310a565b5060408051602080820183526000808352338152600190915291909120600301906107a6908261310a565b50336000908152600160205260408120600481018290556107cc91600590910190612807565b565b3360009081526020819052604081206001015460ff1660028111156107f5576107f56129cc565b1415801561082a575060013360009081526020819052604090206001015460ff166002811115610827576108276129cc565b14155b15610837576102ba612089565b6001600160a01b031660008181526002602081815260408084203385528252808420805460ff1990811690915592825280842094845293905291902080549091169055565b3360009081526020819052604081206001015460ff1660028111156108a3576108a36129cc565b141580156108d8575060013360009081526020819052604090206001015460ff1660028111156108d5576108d56129cc565b14155b156108e5576102ba612089565b3360009081526001602052604090206002018054610907919061047c90612ec2565b1561092b57336000908152600160205260409020600201610929828483612f52565b505b336000908152600160205260409020600301610948828483612f52565b505050565b61095561282b565b81336001600160a01b0382161480159061099857503360009081526002602090815260408083206001600160a01b038516845290915290205460ff161515600114155b156109c95760408051808201909152601081526f155cd95c881b9bdd08185b1b1bddd95960821b60208201526102ba565b6001600160a01b0383166000908152600160208181526040808420815160608101835281548152938101805483518186028101860190945280845294959194868501949192909184015b82821015610d3c5783829060005260206000209060040201604051806080016040529081600082018054610a4690612ec2565b80601f0160208091040260200160405190810160405280929190818152602001828054610a7290612ec2565b8015610abf5780601f10610a9457610100808354040283529160200191610abf565b820191906000526020600020905b815481529060010190602001808311610aa257829003601f168201915b50505050508152602001600182018054610ad890612ec2565b80601f0160208091040260200160405190810160405280929190818152602001828054610b0490612ec2565b8015610b515780601f10610b2657610100808354040283529160200191610b51565b820191906000526020600020905b815481529060010190602001808311610b3457829003601f168201915b505050505081526020016002820154815260200160038201805480602002602001604051908101604052809291908181526020016000905b82821015610d255760008481526020908190206040805160a081019091526004850290910180546001600160a01b031682526001810180549293919291840191610bd290612ec2565b80601f0160208091040260200160405190810160405280929190818152602001828054610bfe90612ec2565b8015610c4b5780601f10610c2057610100808354040283529160200191610c4b565b820191906000526020600020905b815481529060010190602001808311610c2e57829003601f168201915b50505050508152602001600282018054610c6490612ec2565b80601f0160208091040260200160405190810160405280929190818152602001828054610c9090612ec2565b8015610cdd5780601f10610cb257610100808354040283529160200191610cdd565b820191906000526020600020905b815481529060010190602001808311610cc057829003601f168201915b5050509183525050600391909101546001600160a01b038116602080840191909152600160a01b90910460ff1615156040909201919091529082526001929092019101610b89565b505050508152505081526020019060010190610a13565b50505050815260200160028201604051806080016040529081600082018054610d6490612ec2565b80601f0160208091040260200160405190810160405280929190818152602001828054610d9090612ec2565b8015610ddd5780601f10610db257610100808354040283529160200191610ddd565b820191906000526020600020905b815481529060010190602001808311610dc057829003601f168201915b50505050508152602001600182018054610df690612ec2565b80601f0160208091040260200160405190810160405280929190818152602001828054610e2290612ec2565b8015610e6f5780601f10610e4457610100808354040283529160200191610e6f565b820191906000526020600020905b815481529060010190602001808311610e5257829003601f168201915b505050505081526020016002820154815260200160038201805480602002602001604051908101604052809291908181526020016000905b828210156110435760008481526020908190206040805160a081019091526004850290910180546001600160a01b031682526001810180549293919291840191610ef090612ec2565b80601f0160208091040260200160405190810160405280929190818152602001828054610f1c90612ec2565b8015610f695780601f10610f3e57610100808354040283529160200191610f69565b820191906000526020600020905b815481529060010190602001808311610f4c57829003601f168201915b50505050508152602001600282018054610f8290612ec2565b80601f0160208091040260200160405190810160405280929190818152602001828054610fae90612ec2565b8015610ffb5780601f10610fd057610100808354040283529160200191610ffb565b820191906000526020600020905b815481529060010190602001808311610fde57829003601f168201915b5050509183525050600391909101546001600160a01b038116602080840191909152600160a01b90910460ff1615156040909201919091529082526001929092019101610ea7565b505050915250509052509392505050565b60408051606080820183528152600060208201819052918101919091526001600160a01b038216600090815260208190526040908190208151606081019092528054829082906110a390612ec2565b80601f01602080910402602001604051908101604052809291908181526020018280546110cf90612ec2565b801561111c5780601f106110f15761010080835404028352916020019161111c565b820191906000526020600020905b8154815290600101906020018083116110ff57829003601f168201915b5050509183525050600182015460209091019060ff166002811115611143576111436129cc565b6002811115611154576111546129cc565b81526001919091015461010090046001600160a01b031660209091015292915050565b3360009081526020819052604090208054611196919061047c90612ec2565b156111ca57604080518082019091526013815272155cd95c881b9bdd081c9959da5cdd195c9959606a1b60208201526102ba565b3360009081526020819052604081206001015460ff1660028111156111f1576111f16129cc565b146112205760408051808201909152600e81526d155cd95c881b9bdd081c1a5b1bdd60921b60208201526102ba565b3360009081526020819052604090206001908101805460ff19169091179055565b3360009081526020819052604081206001015460ff166002811115611268576112686129cc565b1415801561129d575060013360009081526020819052604090206001015460ff16600281111561129a5761129a6129cc565b14155b156112aa576102ba612089565b6001600160a01b03166000818152600260209081526040808320338085528184528285208054600160ff199182168117909255928101805480830182559087528587200180546001600160a01b03199081168417909155918652600380865284872088885280875294872080549094168217909355918452918101805491820181558452919092200180549091169091179055565b60013360009081526020819052604090206001015460ff166002811115611368576113686129cc565b14611375576102ba6120c0565b60006113828484846120e9565b905060006113918585856122be565b905081158061139e575080155b156113dc5760408051808201909152601781527f4973206e6f74207369676e657220666f7220656e74727900000000000000000060208201526102ba565b5050505050565b3360009081526020819052604081206001015460ff16600281111561140a5761140a6129cc565b1415801561143f575060013360009081526020819052604090206001015460ff16600281111561143c5761143c6129cc565b14155b1561144c576102ba612089565b336000908152600160205260409020600201805461146e919061047c90612ec2565b156114915733600090815260016020526040902060020161148f838261310a565b505b3360009081526001602052604090206003016114ad838261310a565b506040805160a08101825233808252600090815260016020908152928120600201805491938301916114de90612ec2565b80601f016020809104026020016040519081016040528092919081815260200182805461150a90612ec2565b80156115575780601f1061152c57610100808354040283529160200191611557565b820191906000526020600020905b81548152906001019060200180831161153a57829003601f168201915b505050918352505060208082018690526001600160a01b038581166040808501919091526000606090940184905233845260018084529084206005018054808301825590855293839020855160049095020180546001600160a01b0319169490921693909317815590830151929350839290918201906115d7908261310a565b50604082015160028201906115ec908261310a565b506060820151600390910180546080909301511515600160a01b026001600160a81b03199093166001600160a01b0390921691909117919091179055336000908152600160205260408120600401805491611646836131b3565b90915550506001600160a01b03828116600090815260046020818152604083206001908101805480830182559085529382902086519490930290920180546001600160a01b03191693909416929092178355908301518392918201906116ac908261310a565b50604082015160028201906116c1908261310a565b506060820151600390910180546080909301511515600160a01b026001600160a81b03199093166001600160a01b03928316179290921790915582166000908152600460205260408120805491611717836131b3565b9190505550505050565b606060013360009081526020819052604090206001015460ff16600281111561174c5761174c6129cc565b14611759576102ba6120c0565b6000805b3360009081526004602052604090205482146117de57336000908152600460205260408120600101805484908110611797576117976131cc565b906000526020600020906004020190508060030160149054906101000a900460ff166117cb57816117c7816131b3565b9250505b50816117d6816131b3565b92505061175d565b6000816001600160401b038111156117f8576117f8612d35565b60405190808252806020026020018201604052801561183157816020015b61181e612874565b8152602001906001900390816118165790505b50905060008093505b336000908152600460205260409020548414611a4a57336000908152600460205260408120600101805486908110611874576118746131cc565b906000526020600020906004020190508060030160149054906101000a900460ff16611a37576040805160a0810190915281546001600160a01b031681526001820180546000929160208301916118ca90612ec2565b80601f01602080910402602001604051908101604052809291908181526020018280546118f690612ec2565b80156119435780601f1061191857610100808354040283529160200191611943565b820191906000526020600020905b81548152906001019060200180831161192657829003601f168201915b5050505050815260200183600201805461195c90612ec2565b80601f016020809104026020016040519081016040528092919081815260200182805461198890612ec2565b80156119d55780601f106119aa576101008083540402835291602001916119d5565b820191906000526020600020905b8154815290600101906020018083116119b857829003601f168201915b505050918352505060038401546001600160a01b0381166020830152600160a01b900460ff16151560409091015284519091508190859085908110611a1c57611a1c6131cc565b60200260200101819052508280611a32906131b3565b935050505b5083611a42816131b3565b94505061183a565b509250505090565b606060013360009081526020819052604090206001015460ff166002811115611a7d57611a7d6129cc565b14611a8a576102ba6120c0565b6000805b336000908152600460205260409020548214611b1057336000908152600460205260408120600101805484908110611ac857611ac86131cc565b906000526020600020906004020190508060030160149054906101000a900460ff1615611afd5781611af9816131b3565b9250505b5081611b08816131b3565b925050611a8e565b6000816001600160401b03811115611b2a57611b2a612d35565b604051908082528060200260200182016040528015611b6357816020015b611b50612874565b815260200190600190039081611b485790505b50905060008093505b336000908152600460205260409020548414611a4a57336000908152600460205260408120600101805486908110611ba657611ba66131cc565b906000526020600020906004020190508060030160149054906101000a900460ff1615611d6a576040805160a0810190915281546001600160a01b03168152600182018054600092916020830191611bfd90612ec2565b80601f0160208091040260200160405190810160405280929190818152602001828054611c2990612ec2565b8015611c765780601f10611c4b57610100808354040283529160200191611c76565b820191906000526020600020905b815481529060010190602001808311611c5957829003601f168201915b50505050508152602001836002018054611c8f90612ec2565b80601f0160208091040260200160405190810160405280929190818152602001828054611cbb90612ec2565b8015611d085780601f10611cdd57610100808354040283529160200191611d08565b820191906000526020600020905b815481529060010190602001808311611ceb57829003601f168201915b505050918352505060038401546001600160a01b0381166020830152600160a01b900460ff16151560409091015284519091508190859085908110611d4f57611d4f6131cc565b60200260200101819052508280611d65906131b3565b935050505b5083611d75816131b3565b945050611b6c565b60606000805b6001840154811015611dec576000846001018281548110611da657611da66131cc565b60009182526020808320909101546001600160a01b03168083529087905260409091205490915060ff1615611de35782611ddf816131b3565b9350505b50600101611d83565b6000826001600160401b03811115611e0657611e06612d35565b604051908082528060200260200182016040528015611e5157816020015b6040805160608082018352815260006020808301829052928201528252600019909201910181611e245790505b50905060008092505b6001860154831015611fe6576000866001018481548110611e7d57611e7d6131cc565b60009182526020808320909101546001600160a01b03168083529089905260409091205490915060ff1615611fda576001600160a01b03811660009081526020819052604090819020815160608101909252805482908290611ede90612ec2565b80601f0160208091040260200160405190810160405280929190818152602001828054611f0a90612ec2565b8015611f575780601f10611f2c57610100808354040283529160200191611f57565b820191906000526020600020905b815481529060010190602001808311611f3a57829003601f168201915b5050509183525050600182015460209091019060ff166002811115611f7e57611f7e6129cc565b6002811115611f8f57611f8f6129cc565b81526001919091015461010090046001600160a01b03166020909101528351849084908110611fc057611fc06131cc565b60200260200101819052508180611fd6906131b3565b9250505b50600190920191611e5a565b50949350505050565b815181516000918491849190811461200d5760009350505050612083565b60005b8181101561207a5782818151811061202a5761202a6131cc565b602001015160f81c60f81b6001600160f81b031916848281518110612051576120516131cc565b01602001516001600160f81b03191614612072576000945050505050612083565b600101612010565b50600193505050505b92915050565b60408051808201909152601981527f55736572206e6f742070696c6f74206e6f72207369676e657200000000000000602082015290565b60408051808201909152600f81526e2ab9b2b9103737ba1039b4b3b732b960891b602082015290565b6000805b336000908152600460205260409020548110156122b157336000908152600460205260408120600101805483908110612128576121286131cc565b6000918252602090912060049091020180549091506001600160a01b0387811691161480156121e857506121e881600101805461216490612ec2565b80601f016020809104026020016040519081016040528092919081815260200182805461219090612ec2565b80156121dd5780601f106121b2576101008083540402835291602001916121dd565b820191906000526020600020905b8154815290600101906020018083116121c057829003601f168201915b505050505086611fef565b801561228557506122858482600201805461220290612ec2565b80601f016020809104026020016040519081016040528092919081815260200182805461222e90612ec2565b801561227b5780601f106122505761010080835404028352916020019161227b565b820191906000526020600020905b81548152906001019060200180831161225e57829003601f168201915b5050505050611fef565b156122a857600301805460ff60a01b1916600160a01b17905550600190506122b7565b506001016120ed565b60009150505b9392505050565b6001600160a01b03831660009081526001602052604081206002018054829161236e916122ea90612ec2565b80601f016020809104026020016040519081016040528092919081815260200182805461231690612ec2565b80156123635780601f1061233857610100808354040283529160200191612363565b820191906000526020600020905b81548152906001019060200180831161234657829003601f168201915b505050505085611fef565b156124f057506001600160a01b0384166000908152600160205260408120600201905b816002015481146124e55760008260030182815481106123b3576123b36131cc565b6000918252602090912060049091020180549091506001600160a01b03888116911614801561247357506124738160010180546123ef90612ec2565b80601f016020809104026020016040519081016040528092919081815260200182805461241b90612ec2565b80156124685780601f1061243d57610100808354040283529160200191612468565b820191906000526020600020905b81548152906001019060200180831161244b57829003601f168201915b505050505087611fef565b801561248d575061248d8582600201805461220290612ec2565b156124d25760038101546001600160a01b031633036124c657600301805460ff60a01b1916600160a01b17905550600191506122b79050565b600093505050506122b7565b50806124dd816131b3565b915050612391565b6000925050506122b7565b60005b6001600160a01b03861660009081526001602052604090205481146127185761256a60016000886001600160a01b03166001600160a01b03168152602001908152602001600020600101828154811061254e5761254e6131cc565b9060005260206000209060040201600001805461216490612ec2565b15612706576001600160a01b03861660009081526001602081905260409091200180548290811061259d5761259d6131cc565b9060005260206000209060040201915060005b826002015481146124c65760008360030182815481106125d2576125d26131cc565b6000918252602090912060049091020180549091506001600160a01b038981169116148015612692575061269281600101805461260e90612ec2565b80601f016020809104026020016040519081016040528092919081815260200182805461263a90612ec2565b80156126875780601f1061265c57610100808354040283529160200191612687565b820191906000526020600020905b81548152906001019060200180831161266a57829003601f168201915b505050505088611fef565b80156126ac57506126ac8682600201805461220290612ec2565b156126f35760038101546001600160a01b031633036126e657600301805460ff60a01b1916600160a01b17905550600192506122b7915050565b60009450505050506122b7565b50806126fe816131b3565b9150506125b0565b80612710816131b3565b9150506124f3565b50600095945050505050565b8280548282559060005260206000209060040281019282156127f75760005260206000209160040282015b828111156127f757825482546001600160a01b0319166001600160a01b0390911617825582826001808201906127879084018261300b565b5060028181019061279a9084018261300b565b50600391820180549190920180546001600160a01b039092166001600160a01b031983168117825592546001600160a81b0319909216909217600160a01b9182900460ff161515909102179055600492830192919091019061274f565b506128039291506128b7565b5090565b508054600082556004029060005260206000209081019061282891906128b7565b50565b6040518060600160405280600081526020016060815260200161286f6040518060800160405280606081526020016060815260200160008152602001606081525090565b905290565b6040518060a0016040528060006001600160a01b03168152602001606081526020016060815260200160006001600160a01b031681526020016000151581525090565b808211156128035780546001600160a01b031916815560006128dc6001830182612905565b6128ea600283016000612905565b506003810180546001600160a81b03191690556004016128b7565b50805461291190612ec2565b6000825580601f10612921575050565b601f01602090049060005260206000209081019061282891905b80821115612803576000815560010161293b565b80356001600160a01b038116811461296657600080fd5b919050565b60006020828403121561297d57600080fd5b6122b78261294f565b6000815180845260005b818110156129ac57602081850181015186830182015201612990565b506000602082860101526020601f19601f83011685010191505092915050565b634e487b7160e01b600052602160045260246000fd5b60008151606084526129f76060850182612986565b9050602083015160038110612a1c57634e487b7160e01b600052602160045260246000fd5b60208501526040928301516001600160a01b031692909301919091525090565b6020815260006122b760208301846129e2565b6000602082016020835280845180835260408501915060408160051b86010192506020860160005b82811015612aa857603f19878603018452612a938583516129e2565b94506020938401939190910190600101612a77565b50929695505050505050565b60008083601f840112612ac657600080fd5b5081356001600160401b03811115612add57600080fd5b602083019150836020828501011115612af557600080fd5b9250929050565b600080600060408486031215612b1157600080fd5b83356001600160401b03811115612b2757600080fd5b612b3386828701612ab4565b909450925050602084013560038110612b4b57600080fd5b809150509250925092565b60008060208385031215612b6957600080fd5b82356001600160401b03811115612b7f57600080fd5b612b8b85828601612ab4565b90969095509350505050565b600082825180855260208501945060208160051b8301016020850160005b83811015612c4157848303601f19018852815180516001600160a01b0316845260208082015160a091860182905290612bf090860182612986565b905060408201518582036040870152612c098282612986565b6060848101516001600160a01b0316908801526080938401511515939096019290925250506020978801979190910190600101612bb5565b50909695505050505050565b6000815160808452612c626080850182612986565b905060208301518482036020860152612c7b8282612986565b9150506040830151604085015260608301518482036060860152612c9f8282612b97565b95945050505050565b602081526000608082018351602084015260208401516060604085015281815180845260a08601915060a08160051b870101935060208301925060005b81811015612d1657609f19878603018352612d01858551612c4d565b94506020938401939290920191600101612ce5565b505050506040840151838203601f19016060850152612c9f8282612c4d565b634e487b7160e01b600052604160045260246000fd5b600082601f830112612d5c57600080fd5b81356001600160401b03811115612d7557612d75612d35565b604051601f8201601f19908116603f011681016001600160401b0381118282101715612da357612da3612d35565b604052818152838201602001851015612dbb57600080fd5b816020850160208301376000918101602001919091529392505050565b600080600060608486031215612ded57600080fd5b612df68461294f565b925060208401356001600160401b03811115612e1157600080fd5b612e1d86828701612d4b565b92505060408401356001600160401b03811115612e3957600080fd5b612e4586828701612d4b565b9150509250925092565b60008060408385031215612e6257600080fd5b82356001600160401b03811115612e7857600080fd5b612e8485828601612d4b565b925050612e936020840161294f565b90509250929050565b6020815260006122b76020830184612b97565b6020815260006122b76020830184612986565b600181811c90821680612ed657607f821691505b6020821081036103df57634e487b7160e01b600052602260045260246000fd5b601f82111561094857806000526020600020601f840160051c81016020851015612f1d5750805b601f840160051c820191505b818110156113dc5760008155600101612f29565b600019600383901b1c191660019190911b1790565b6001600160401b03831115612f6957612f69612d35565b612f7d83612f778354612ec2565b83612ef6565b6000601f841160018114612fab5760008515612f995750838201355b612fa38682612f3d565b8455506113dc565b600083815260209020601f19861690835b82811015612fdc5786850135825560209485019460019092019101612fbc565b5086821015612ff95760001960f88860031b161c19848701351681555b505060018560011b0183555050505050565b818103613016575050565b6130208254612ec2565b6001600160401b0381111561303757613037612d35565b61304b816130458454612ec2565b84612ef6565b6000601f82116001811461307957600083156130675750848201545b6130718482612f3d565b8555506113dc565b600085815260209020601f19841690600086815260209020845b838110156130b35782860154825560019586019590910190602001613093565b50858310156130d15781850154600019600388901b60f8161c191681555b5050505050600190811b01905550565b634e487b7160e01b600052601160045260246000fd5b80820180821115612083576120836130e1565b81516001600160401b0381111561312357613123612d35565b613131816130458454612ec2565b6020601f82116001811461315657600083156130675750848201516130718482612f3d565b600084815260208120601f198516915b828110156131865787850151825560209485019460019092019101613166565b50848210156131a45786840151600019600387901b60f8161c191681555b50505050600190811b01905550565b6000600182016131c5576131c56130e1565b5060010190565b634e487b7160e01b600052603260045260246000fdfea26469706673582212200e4ab29b5b298af4250f0aec4c11db2ac4222504c2c27dfc6aaa82ba54f7a14664736f6c634300081a0033","opcodes":"PUSH1 0x80 PUSH1 0x40 MSTORE CALLVALUE DUP1 ISZERO PUSH1 0xF JUMPI PUSH1 0x0 DUP1 REVERT JUMPDEST POP PUSH2 0x3218 DUP1 PUSH2 0x1F PUSH1 0x0 CODECOPY PUSH1 0x0 RETURN INVALID PUSH1 0x80 PUSH1 0x40 MSTORE CALLVALUE DUP1 ISZERO PUSH2 0x10 JUMPI PUSH1 0x0 DUP1 REVERT JUMPDEST POP PUSH1 0x4 CALLDATASIZE LT PUSH2 0x100 JUMPI PUSH1 0x0 CALLDATALOAD PUSH1 0xE0 SHR DUP1 PUSH4 0x63E0B4C4 GT PUSH2 0x97 JUMPI DUP1 PUSH4 0xBC569F07 GT PUSH2 0x66 JUMPI DUP1 PUSH4 0xBC569F07 EQ PUSH2 0x1EA JUMPI DUP1 PUSH4 0xD604363E EQ PUSH2 0x1FD JUMPI DUP1 PUSH4 0xF37D3EFA EQ PUSH2 0x210 JUMPI DUP1 PUSH4 0xFFF2DEE4 EQ PUSH2 0x225 JUMPI PUSH1 0x0 DUP1 REVERT JUMPDEST DUP1 PUSH4 0x63E0B4C4 EQ PUSH2 0x19C JUMPI DUP1 PUSH4 0x987EE156 EQ PUSH2 0x1BC JUMPI DUP1 PUSH4 0xA1F16CA0 EQ PUSH2 0x1CF JUMPI DUP1 PUSH4 0xB672140D EQ PUSH2 0x1D7 JUMPI PUSH1 0x0 DUP1 REVERT JUMPDEST DUP1 PUSH4 0x4FAF9CAD GT PUSH2 0xD3 JUMPI DUP1 PUSH4 0x4FAF9CAD EQ PUSH2 0x166 JUMPI DUP1 PUSH4 0x51CB4A79 EQ PUSH2 0x16E JUMPI DUP1 PUSH4 0x58B0126C EQ PUSH2 0x176 JUMPI DUP1 PUSH4 0x63CA5057 EQ PUSH2 0x189 JUMPI PUSH1 0x0 DUP1 REVERT JUMPDEST DUP1 PUSH4 0xF53A470 EQ PUSH2 0x105 JUMPI DUP1 PUSH4 0x2044BAEA EQ PUSH2 0x12E JUMPI DUP1 PUSH4 0x309F9CAF EQ PUSH2 0x143 JUMPI DUP1 PUSH4 0x42948E18 EQ PUSH2 0x158 JUMPI JUMPDEST PUSH1 0x0 DUP1 REVERT JUMPDEST PUSH2 0x118 PUSH2 0x113 CALLDATASIZE PUSH1 0x4 PUSH2 0x296B JUMP JUMPDEST PUSH2 0x22D JUMP JUMPDEST PUSH1 0x40 MLOAD PUSH2 0x125 SWAP2 SWAP1 PUSH2 0x2A3C JUMP JUMPDEST PUSH1 0x40 MLOAD DUP1 SWAP2 SUB SWAP1 RETURN JUMPDEST PUSH2 0x136 PUSH2 0x3E5 JUMP JUMPDEST PUSH1 0x40 MLOAD PUSH2 0x125 SWAP2 SWAP1 PUSH2 0x2A4F JUMP JUMPDEST PUSH2 0x156 PUSH2 0x151 CALLDATASIZE PUSH1 0x4 PUSH2 0x2AFC JUMP JUMPDEST PUSH2 0x45D JUMP JUMPDEST STOP JUMPDEST PUSH1 0x40 MLOAD CALLER DUP2 MSTORE PUSH1 0x20 ADD PUSH2 0x125 JUMP JUMPDEST PUSH2 0x136 PUSH2 0x5CD JUMP JUMPDEST PUSH2 0x156 PUSH2 0x652 JUMP JUMPDEST PUSH2 0x156 PUSH2 0x184 CALLDATASIZE PUSH1 0x4 PUSH2 0x296B JUMP JUMPDEST PUSH2 0x7CE JUMP JUMPDEST PUSH2 0x156 PUSH2 0x197 CALLDATASIZE PUSH1 0x4 PUSH2 0x2B56 JUMP JUMPDEST PUSH2 0x87C JUMP JUMPDEST PUSH2 0x1AF PUSH2 0x1AA CALLDATASIZE PUSH1 0x4 PUSH2 0x296B JUMP JUMPDEST PUSH2 0x94D JUMP JUMPDEST PUSH1 0x40 MLOAD PUSH2 0x125 SWAP2 SWAP1 PUSH2 0x2CA8 JUMP JUMPDEST PUSH2 0x118 PUSH2 0x1CA CALLDATASIZE PUSH1 0x4 PUSH2 0x296B JUMP JUMPDEST PUSH2 0x1054 JUMP JUMPDEST PUSH2 0x156 PUSH2 0x1177 JUMP JUMPDEST PUSH2 0x156 PUSH2 0x1E5 CALLDATASIZE PUSH1 0x4 PUSH2 0x296B JUMP JUMPDEST PUSH2 0x1241 JUMP JUMPDEST PUSH2 0x156 PUSH2 0x1F8 CALLDATASIZE PUSH1 0x4 PUSH2 0x2DD8 JUMP JUMPDEST PUSH2 0x133F JUMP JUMPDEST PUSH2 0x156 PUSH2 0x20B CALLDATASIZE PUSH1 0x4 PUSH2 0x2E4F JUMP JUMPDEST PUSH2 0x13E3 JUMP JUMPDEST PUSH2 0x218 PUSH2 0x1721 JUMP JUMPDEST PUSH1 0x40 MLOAD PUSH2 0x125 SWAP2 SWAP1 PUSH2 0x2E9C JUMP JUMPDEST PUSH2 0x218 PUSH2 0x1A52 JUMP JUMPDEST PUSH1 0x40 DUP1 MLOAD PUSH1 0x60 DUP1 DUP3 ADD DUP4 MSTORE DUP2 MSTORE PUSH1 0x0 PUSH1 0x20 DUP3 ADD DUP2 SWAP1 MSTORE SWAP2 DUP2 ADD SWAP2 SWAP1 SWAP2 MSTORE DUP2 CALLER PUSH1 0x1 PUSH1 0x1 PUSH1 0xA0 SHL SUB DUP3 AND EQ DUP1 ISZERO SWAP1 PUSH2 0x28D JUMPI POP CALLER PUSH1 0x0 SWAP1 DUP2 MSTORE PUSH1 0x2 PUSH1 0x20 SWAP1 DUP2 MSTORE PUSH1 0x40 DUP1 DUP4 KECCAK256 PUSH1 0x1 PUSH1 0x1 PUSH1 0xA0 SHL SUB DUP6 AND DUP5 MSTORE SWAP1 SWAP2 MSTORE SWAP1 KECCAK256 SLOAD PUSH1 0xFF AND ISZERO ISZERO PUSH1 0x1 EQ ISZERO JUMPDEST ISZERO PUSH2 0x2DC JUMPI PUSH1 0x40 DUP1 MLOAD DUP1 DUP3 ADD SWAP1 SWAP2 MSTORE PUSH1 0x10 DUP2 MSTORE PUSH16 0x155CD95C881B9BDD08185B1B1BDDD959 PUSH1 0x82 SHL PUSH1 0x20 DUP3 ADD MSTORE JUMPDEST PUSH1 0x40 MLOAD PUSH3 0x461BCD PUSH1 0xE5 SHL DUP2 MSTORE PUSH1 0x4 ADD PUSH2 0x2D3 SWAP2 SWAP1 PUSH2 0x2EAF JUMP JUMPDEST PUSH1 0x40 MLOAD DUP1 SWAP2 SUB SWAP1 REVERT JUMPDEST PUSH1 0x1 PUSH1 0x1 PUSH1 0xA0 SHL SUB DUP4 AND PUSH1 0x0 SWAP1 DUP2 MSTORE PUSH1 0x20 DUP2 SWAP1 MSTORE PUSH1 0x40 SWAP1 DUP2 SWAP1 KECCAK256 DUP2 MLOAD PUSH1 0x60 DUP2 ADD SWAP1 SWAP3 MSTORE DUP1 SLOAD DUP3 SWAP1 DUP3 SWAP1 PUSH2 0x30E SWAP1 PUSH2 0x2EC2 JUMP JUMPDEST DUP1 PUSH1 0x1F ADD PUSH1 0x20 DUP1 SWAP2 DIV MUL PUSH1 0x20 ADD PUSH1 0x40 MLOAD SWAP1 DUP2 ADD PUSH1 0x40 MSTORE DUP1 SWAP3 SWAP2 SWAP1 DUP2 DUP2 MSTORE PUSH1 0x20 ADD DUP3 DUP1 SLOAD PUSH2 0x33A SWAP1 PUSH2 0x2EC2 JUMP JUMPDEST DUP1 ISZERO PUSH2 0x387 JUMPI DUP1 PUSH1 0x1F LT PUSH2 0x35C JUMPI PUSH2 0x100 DUP1 DUP4 SLOAD DIV MUL DUP4 MSTORE SWAP2 PUSH1 0x20 ADD SWAP2 PUSH2 0x387 JUMP JUMPDEST DUP3 ADD SWAP2 SWAP1 PUSH1 0x0 MSTORE PUSH1 0x20 PUSH1 0x0 KECCAK256 SWAP1 JUMPDEST DUP2 SLOAD DUP2 MSTORE SWAP1 PUSH1 0x1 ADD SWAP1 PUSH1 0x20 ADD DUP1 DUP4 GT PUSH2 0x36A JUMPI DUP3 SWAP1 SUB PUSH1 0x1F AND DUP3 ADD SWAP2 JUMPDEST POP POP POP SWAP2 DUP4 MSTORE POP POP PUSH1 0x1 DUP3 ADD SLOAD PUSH1 0x20 SWAP1 SWAP2 ADD SWAP1 PUSH1 0xFF AND PUSH1 0x2 DUP2 GT ISZERO PUSH2 0x3AE JUMPI PUSH2 0x3AE PUSH2 0x29CC JUMP JUMPDEST PUSH1 0x2 DUP2 GT ISZERO PUSH2 0x3BF JUMPI PUSH2 0x3BF PUSH2 0x29CC JUMP JUMPDEST DUP2 MSTORE PUSH1 0x1 SWAP2 SWAP1 SWAP2 ADD SLOAD PUSH2 0x100 SWAP1 DIV PUSH1 0x1 PUSH1 0x1 PUSH1 0xA0 SHL SUB AND PUSH1 0x20 SWAP1 SWAP2 ADD MSTORE SWAP2 POP JUMPDEST POP SWAP2 SWAP1 POP JUMP JUMPDEST PUSH1 0x60 PUSH1 0x2 CALLER PUSH1 0x0 SWAP1 DUP2 MSTORE PUSH1 0x20 DUP2 SWAP1 MSTORE PUSH1 0x40 SWAP1 KECCAK256 PUSH1 0x1 ADD SLOAD PUSH1 0xFF AND PUSH1 0x2 DUP2 GT ISZERO PUSH2 0x410 JUMPI PUSH2 0x410 PUSH2 0x29CC JUMP JUMPDEST EQ PUSH2 0x440 JUMPI PUSH1 0x40 DUP1 MLOAD DUP1 DUP3 ADD SWAP1 SWAP2 MSTORE PUSH1 0xF DUP2 MSTORE PUSH15 0x55736572206E6F7420656E74697479 PUSH1 0x88 SHL PUSH1 0x20 DUP3 ADD MSTORE PUSH2 0x2BA JUMP JUMPDEST CALLER PUSH1 0x0 SWAP1 DUP2 MSTORE PUSH1 0x2 PUSH1 0x20 MSTORE PUSH1 0x40 SWAP1 KECCAK256 PUSH2 0x458 SWAP1 PUSH2 0x1D7D JUMP JUMPDEST SWAP1 POP SWAP1 JUMP JUMPDEST CALLER PUSH1 0x0 SWAP1 DUP2 MSTORE PUSH1 0x20 DUP2 SWAP1 MSTORE PUSH1 0x40 SWAP1 KECCAK256 DUP1 SLOAD PUSH2 0x50F SWAP2 SWAP1 PUSH2 0x47C SWAP1 PUSH2 0x2EC2 JUMP JUMPDEST DUP1 PUSH1 0x1F ADD PUSH1 0x20 DUP1 SWAP2 DIV MUL PUSH1 0x20 ADD PUSH1 0x40 MLOAD SWAP1 DUP2 ADD PUSH1 0x40 MSTORE DUP1 SWAP3 SWAP2 SWAP1 DUP2 DUP2 MSTORE PUSH1 0x20 ADD DUP3 DUP1 SLOAD PUSH2 0x4A8 SWAP1 PUSH2 0x2EC2 JUMP JUMPDEST DUP1 ISZERO PUSH2 0x4F5 JUMPI DUP1 PUSH1 0x1F LT PUSH2 0x4CA JUMPI PUSH2 0x100 DUP1 DUP4 SLOAD DIV MUL DUP4 MSTORE SWAP2 PUSH1 0x20 ADD SWAP2 PUSH2 0x4F5 JUMP JUMPDEST DUP3 ADD SWAP2 SWAP1 PUSH1 0x0 MSTORE PUSH1 0x20 PUSH1 0x0 KECCAK256 SWAP1 JUMPDEST DUP2 SLOAD DUP2 MSTORE SWAP1 PUSH1 0x1 ADD SWAP1 PUSH1 0x20 ADD DUP1 DUP4 GT PUSH2 0x4D8 JUMPI DUP3 SWAP1 SUB PUSH1 0x1F AND DUP3 ADD SWAP2 JUMPDEST POP POP POP POP POP PUSH1 0x40 MLOAD DUP1 PUSH1 0x20 ADD PUSH1 0x40 MSTORE DUP1 PUSH1 0x0 DUP2 MSTORE POP PUSH2 0x1FEF JUMP JUMPDEST PUSH2 0x54C JUMPI PUSH1 0x40 DUP1 MLOAD DUP1 DUP3 ADD SWAP1 SWAP2 MSTORE PUSH1 0x17 DUP2 MSTORE PUSH32 0x5573657220616C72656164792072656769737465726564000000000000000000 PUSH1 0x20 DUP3 ADD MSTORE PUSH2 0x2BA JUMP JUMPDEST CALLER PUSH1 0x0 SWAP1 DUP2 MSTORE PUSH1 0x20 DUP2 SWAP1 MSTORE PUSH1 0x40 SWAP1 KECCAK256 PUSH2 0x566 DUP4 DUP6 DUP4 PUSH2 0x2F52 JUMP JUMPDEST POP CALLER PUSH1 0x0 SWAP1 DUP2 MSTORE PUSH1 0x20 DUP2 SWAP1 MSTORE PUSH1 0x40 SWAP1 KECCAK256 PUSH1 0x1 SWAP1 DUP2 ADD DUP1 SLOAD DUP4 SWAP3 PUSH1 0xFF NOT SWAP1 SWAP2 AND SWAP1 DUP4 PUSH1 0x2 DUP2 GT ISZERO PUSH2 0x598 JUMPI PUSH2 0x598 PUSH2 0x29CC JUMP JUMPDEST MUL OR SWAP1 SSTORE POP POP CALLER PUSH1 0x0 DUP2 DUP2 MSTORE PUSH1 0x20 DUP2 SWAP1 MSTORE PUSH1 0x40 SWAP1 KECCAK256 PUSH1 0x1 ADD DUP1 SLOAD PUSH2 0x100 PUSH1 0x1 PUSH1 0xA8 SHL SUB NOT AND PUSH2 0x100 SWAP1 SWAP3 MUL SWAP2 SWAP1 SWAP2 OR SWAP1 SSTORE POP POP JUMP JUMPDEST PUSH1 0x60 PUSH1 0x0 CALLER PUSH1 0x0 SWAP1 DUP2 MSTORE PUSH1 0x20 DUP2 SWAP1 MSTORE PUSH1 0x40 SWAP1 KECCAK256 PUSH1 0x1 ADD SLOAD PUSH1 0xFF AND PUSH1 0x2 DUP2 GT ISZERO PUSH2 0x5F8 JUMPI PUSH2 0x5F8 PUSH2 0x29CC JUMP JUMPDEST EQ ISZERO DUP1 ISZERO PUSH2 0x62D JUMPI POP PUSH1 0x1 CALLER PUSH1 0x0 SWAP1 DUP2 MSTORE PUSH1 0x20 DUP2 SWAP1 MSTORE PUSH1 0x40 SWAP1 KECCAK256 PUSH1 0x1 ADD SLOAD PUSH1 0xFF AND PUSH1 0x2 DUP2 GT ISZERO PUSH2 0x62A JUMPI PUSH2 0x62A PUSH2 0x29CC JUMP JUMPDEST EQ ISZERO JUMPDEST ISZERO PUSH2 0x63A JUMPI PUSH2 0x2BA PUSH2 0x2089 JUMP JUMPDEST CALLER PUSH1 0x0 SWAP1 DUP2 MSTORE PUSH1 0x3 PUSH1 0x20 MSTORE PUSH1 0x40 SWAP1 KECCAK256 PUSH2 0x458 SWAP1 PUSH2 0x1D7D JUMP JUMPDEST CALLER PUSH1 0x0 SWAP1 DUP2 MSTORE PUSH1 0x20 DUP2 SWAP1 MSTORE PUSH1 0x40 DUP2 KECCAK256 PUSH1 0x1 ADD SLOAD PUSH1 0xFF AND PUSH1 0x2 DUP2 GT ISZERO PUSH2 0x679 JUMPI PUSH2 0x679 PUSH2 0x29CC JUMP JUMPDEST EQ ISZERO DUP1 ISZERO PUSH2 0x6AE JUMPI POP PUSH1 0x1 CALLER PUSH1 0x0 SWAP1 DUP2 MSTORE PUSH1 0x20 DUP2 SWAP1 MSTORE PUSH1 0x40 SWAP1 KECCAK256 PUSH1 0x1 ADD SLOAD PUSH1 0xFF AND PUSH1 0x2 DUP2 GT ISZERO PUSH2 0x6AB JUMPI PUSH2 0x6AB PUSH2 0x29CC JUMP JUMPDEST EQ ISZERO JUMPDEST ISZERO PUSH2 0x6BB JUMPI PUSH2 0x2BA PUSH2 0x2089 JUMP JUMPDEST CALLER PUSH1 0x0 SWAP1 DUP2 MSTORE PUSH1 0x1 PUSH1 0x20 DUP2 DUP2 MSTORE PUSH1 0x40 DUP4 KECCAK256 DUP1 DUP4 ADD DUP1 SLOAD SWAP4 DUP5 ADD DUP2 SSTORE DUP5 MSTORE SWAP3 KECCAK256 PUSH1 0x2 SWAP1 SWAP3 ADD SWAP2 PUSH1 0x4 SWAP1 SWAP2 MUL ADD DUP1 PUSH2 0x6F1 DUP4 DUP3 PUSH2 0x300B JUMP JUMPDEST POP PUSH1 0x1 DUP2 DUP2 ADD SWAP1 PUSH2 0x704 SWAP1 DUP5 ADD DUP3 PUSH2 0x300B JUMP JUMPDEST POP PUSH1 0x2 DUP3 ADD SLOAD DUP2 PUSH1 0x2 ADD SSTORE PUSH1 0x3 DUP3 ADD DUP2 PUSH1 0x3 ADD SWAP1 DUP1 SLOAD PUSH2 0x725 SWAP3 SWAP2 SWAP1 PUSH2 0x2724 JUMP JUMPDEST POP POP CALLER PUSH1 0x0 SWAP1 DUP2 MSTORE PUSH1 0x1 PUSH1 0x20 DUP2 SWAP1 MSTORE PUSH1 0x40 SWAP1 SWAP2 KECCAK256 SLOAD PUSH2 0x745 SWAP3 POP SWAP1 PUSH2 0x30F7 JUMP JUMPDEST CALLER PUSH1 0x0 DUP2 DUP2 MSTORE PUSH1 0x1 PUSH1 0x20 DUP2 DUP2 MSTORE PUSH1 0x40 DUP1 DUP5 KECCAK256 SWAP6 DUP7 SSTORE DUP1 MLOAD DUP1 DUP4 ADD SWAP1 SWAP2 MSTORE DUP4 DUP2 MSTORE SWAP4 SWAP1 SWAP3 MSTORE SWAP1 MSTORE PUSH1 0x2 SWAP1 SWAP2 ADD SWAP1 PUSH2 0x77B SWAP1 DUP3 PUSH2 0x310A JUMP JUMPDEST POP PUSH1 0x40 DUP1 MLOAD PUSH1 0x20 DUP1 DUP3 ADD DUP4 MSTORE PUSH1 0x0 DUP1 DUP4 MSTORE CALLER DUP2 MSTORE PUSH1 0x1 SWAP1 SWAP2 MSTORE SWAP2 SWAP1 SWAP2 KECCAK256 PUSH1 0x3 ADD SWAP1 PUSH2 0x7A6 SWAP1 DUP3 PUSH2 0x310A JUMP JUMPDEST POP CALLER PUSH1 0x0 SWAP1 DUP2 MSTORE PUSH1 0x1 PUSH1 0x20 MSTORE PUSH1 0x40 DUP2 KECCAK256 PUSH1 0x4 DUP2 ADD DUP3 SWAP1 SSTORE PUSH2 0x7CC SWAP2 PUSH1 0x5 SWAP1 SWAP2 ADD SWAP1 PUSH2 0x2807 JUMP JUMPDEST JUMP JUMPDEST CALLER PUSH1 0x0 SWAP1 DUP2 MSTORE PUSH1 0x20 DUP2 SWAP1 MSTORE PUSH1 0x40 DUP2 KECCAK256 PUSH1 0x1 ADD SLOAD PUSH1 0xFF AND PUSH1 0x2 DUP2 GT ISZERO PUSH2 0x7F5 JUMPI PUSH2 0x7F5 PUSH2 0x29CC JUMP JUMPDEST EQ ISZERO DUP1 ISZERO PUSH2 0x82A JUMPI POP PUSH1 0x1 CALLER PUSH1 0x0 SWAP1 DUP2 MSTORE PUSH1 0x20 DUP2 SWAP1 MSTORE PUSH1 0x40 SWAP1 KECCAK256 PUSH1 0x1 ADD SLOAD PUSH1 0xFF AND PUSH1 0x2 DUP2 GT ISZERO PUSH2 0x827 JUMPI PUSH2 0x827 PUSH2 0x29CC JUMP JUMPDEST EQ ISZERO JUMPDEST ISZERO PUSH2 0x837 JUMPI PUSH2 0x2BA PUSH2 0x2089 JUMP JUMPDEST PUSH1 0x1 PUSH1 0x1 PUSH1 0xA0 SHL SUB AND PUSH1 0x0 DUP2 DUP2 MSTORE PUSH1 0x2 PUSH1 0x20 DUP2 DUP2 MSTORE PUSH1 0x40 DUP1 DUP5 KECCAK256 CALLER DUP6 MSTORE DUP3 MSTORE DUP1 DUP5 KECCAK256 DUP1 SLOAD PUSH1 0xFF NOT SWAP1 DUP2 AND SWAP1 SWAP2 SSTORE SWAP3 DUP3 MSTORE DUP1 DUP5 KECCAK256 SWAP5 DUP5 MSTORE SWAP4 SWAP1 MSTORE SWAP2 SWAP1 KECCAK256 DUP1 SLOAD SWAP1 SWAP2 AND SWAP1 SSTORE JUMP JUMPDEST CALLER PUSH1 0x0 SWAP1 DUP2 MSTORE PUSH1 0x20 DUP2 SWAP1 MSTORE PUSH1 0x40 DUP2 KECCAK256 PUSH1 0x1 ADD SLOAD PUSH1 0xFF AND PUSH1 0x2 DUP2 GT ISZERO PUSH2 0x8A3 JUMPI PUSH2 0x8A3 PUSH2 0x29CC JUMP JUMPDEST EQ ISZERO DUP1 ISZERO PUSH2 0x8D8 JUMPI POP PUSH1 0x1 CALLER PUSH1 0x0 SWAP1 DUP2 MSTORE PUSH1 0x20 DUP2 SWAP1 MSTORE PUSH1 0x40 SWAP1 KECCAK256 PUSH1 0x1 ADD SLOAD PUSH1 0xFF AND PUSH1 0x2 DUP2 GT ISZERO PUSH2 0x8D5 JUMPI PUSH2 0x8D5 PUSH2 0x29CC JUMP JUMPDEST EQ ISZERO JUMPDEST ISZERO PUSH2 0x8E5 JUMPI PUSH2 0x2BA PUSH2 0x2089 JUMP JUMPDEST CALLER PUSH1 0x0 SWAP1 DUP2 MSTORE PUSH1 0x1 PUSH1 0x20 MSTORE PUSH1 0x40 SWAP1 KECCAK256 PUSH1 0x2 ADD DUP1 SLOAD PUSH2 0x907 SWAP2 SWAP1 PUSH2 0x47C SWAP1 PUSH2 0x2EC2 JUMP JUMPDEST ISZERO PUSH2 0x92B JUMPI CALLER PUSH1 0x0 SWAP1 DUP2 MSTORE PUSH1 0x1 PUSH1 0x20 MSTORE PUSH1 0x40 SWAP1 KECCAK256 PUSH1 0x2 ADD PUSH2 0x929 DUP3 DUP5 DUP4 PUSH2 0x2F52 JUMP JUMPDEST POP JUMPDEST CALLER PUSH1 0x0 SWAP1 DUP2 MSTORE PUSH1 0x1 PUSH1 0x20 MSTORE PUSH1 0x40 SWAP1 KECCAK256 PUSH1 0x3 ADD PUSH2 0x948 DUP3 DUP5 DUP4 PUSH2 0x2F52 JUMP JUMPDEST POP POP POP JUMP JUMPDEST PUSH2 0x955 PUSH2 0x282B JUMP JUMPDEST DUP2 CALLER PUSH1 0x1 PUSH1 0x1 PUSH1 0xA0 SHL SUB DUP3 AND EQ DUP1 ISZERO SWAP1 PUSH2 0x998 JUMPI POP CALLER PUSH1 0x0 SWAP1 DUP2 MSTORE PUSH1 0x2 PUSH1 0x20 SWAP1 DUP2 MSTORE PUSH1 0x40 DUP1 DUP4 KECCAK256 PUSH1 0x1 PUSH1 0x1 PUSH1 0xA0 SHL SUB DUP6 AND DUP5 MSTORE SWAP1 SWAP2 MSTORE SWAP1 KECCAK256 SLOAD PUSH1 0xFF AND ISZERO ISZERO PUSH1 0x1 EQ ISZERO JUMPDEST ISZERO PUSH2 0x9C9 JUMPI PUSH1 0x40 DUP1 MLOAD DUP1 DUP3 ADD SWAP1 SWAP2 MSTORE PUSH1 0x10 DUP2 MSTORE PUSH16 0x155CD95C881B9BDD08185B1B1BDDD959 PUSH1 0x82 SHL PUSH1 0x20 DUP3 ADD MSTORE PUSH2 0x2BA JUMP JUMPDEST PUSH1 0x1 PUSH1 0x1 PUSH1 0xA0 SHL SUB DUP4 AND PUSH1 0x0 SWAP1 DUP2 MSTORE PUSH1 0x1 PUSH1 0x20 DUP2 DUP2 MSTORE PUSH1 0x40 DUP1 DUP5 KECCAK256 DUP2 MLOAD PUSH1 0x60 DUP2 ADD DUP4 MSTORE DUP2 SLOAD DUP2 MSTORE SWAP4 DUP2 ADD DUP1 SLOAD DUP4 MLOAD DUP2 DUP7 MUL DUP2 ADD DUP7 ADD SWAP1 SWAP5 MSTORE DUP1 DUP5 MSTORE SWAP5 SWAP6 SWAP2 SWAP5 DUP7 DUP6 ADD SWAP5 SWAP2 SWAP3 SWAP1 SWAP2 DUP5 ADD JUMPDEST DUP3 DUP3 LT ISZERO PUSH2 0xD3C JUMPI DUP4 DUP3 SWAP1 PUSH1 0x0 MSTORE PUSH1 0x20 PUSH1 0x0 KECCAK256 SWAP1 PUSH1 0x4 MUL ADD PUSH1 0x40 MLOAD DUP1 PUSH1 0x80 ADD PUSH1 0x40 MSTORE SWAP1 DUP2 PUSH1 0x0 DUP3 ADD DUP1 SLOAD PUSH2 0xA46 SWAP1 PUSH2 0x2EC2 JUMP JUMPDEST DUP1 PUSH1 0x1F ADD PUSH1 0x20 DUP1 SWAP2 DIV MUL PUSH1 0x20 ADD PUSH1 0x40 MLOAD SWAP1 DUP2 ADD PUSH1 0x40 MSTORE DUP1 SWAP3 SWAP2 SWAP1 DUP2 DUP2 MSTORE PUSH1 0x20 ADD DUP3 DUP1 SLOAD PUSH2 0xA72 SWAP1 PUSH2 0x2EC2 JUMP JUMPDEST DUP1 ISZERO PUSH2 0xABF JUMPI DUP1 PUSH1 0x1F LT PUSH2 0xA94 JUMPI PUSH2 0x100 DUP1 DUP4 SLOAD DIV MUL DUP4 MSTORE SWAP2 PUSH1 0x20 ADD SWAP2 PUSH2 0xABF JUMP JUMPDEST DUP3 ADD SWAP2 SWAP1 PUSH1 0x0 MSTORE PUSH1 0x20 PUSH1 0x0 KECCAK256 SWAP1 JUMPDEST DUP2 SLOAD DUP2 MSTORE SWAP1 PUSH1 0x1 ADD SWAP1 PUSH1 0x20 ADD DUP1 DUP4 GT PUSH2 0xAA2 JUMPI DUP3 SWAP1 SUB PUSH1 0x1F AND DUP3 ADD SWAP2 JUMPDEST POP POP POP POP POP DUP2 MSTORE PUSH1 0x20 ADD PUSH1 0x1 DUP3 ADD DUP1 SLOAD PUSH2 0xAD8 SWAP1 PUSH2 0x2EC2 JUMP JUMPDEST DUP1 PUSH1 0x1F ADD PUSH1 0x20 DUP1 SWAP2 DIV MUL PUSH1 0x20 ADD PUSH1 0x40 MLOAD SWAP1 DUP2 ADD PUSH1 0x40 MSTORE DUP1 SWAP3 SWAP2 SWAP1 DUP2 DUP2 MSTORE PUSH1 0x20 ADD DUP3 DUP1 SLOAD PUSH2 0xB04 SWAP1 PUSH2 0x2EC2 JUMP JUMPDEST DUP1 ISZERO PUSH2 0xB51 JUMPI DUP1 PUSH1 0x1F LT PUSH2 0xB26 JUMPI PUSH2 0x100 DUP1 DUP4 SLOAD DIV MUL DUP4 MSTORE SWAP2 PUSH1 0x20 ADD SWAP2 PUSH2 0xB51 JUMP JUMPDEST DUP3 ADD SWAP2 SWAP1 PUSH1 0x0 MSTORE PUSH1 0x20 PUSH1 0x0 KECCAK256 SWAP1 JUMPDEST DUP2 SLOAD DUP2 MSTORE SWAP1 PUSH1 0x1 ADD SWAP1 PUSH1 0x20 ADD DUP1 DUP4 GT PUSH2 0xB34 JUMPI DUP3 SWAP1 SUB PUSH1 0x1F AND DUP3 ADD SWAP2 JUMPDEST POP POP POP POP POP DUP2 MSTORE PUSH1 0x20 ADD PUSH1 0x2 DUP3 ADD SLOAD DUP2 MSTORE PUSH1 0x20 ADD PUSH1 0x3 DUP3 ADD DUP1 SLOAD DUP1 PUSH1 0x20 MUL PUSH1 0x20 ADD PUSH1 0x40 MLOAD SWAP1 DUP2 ADD PUSH1 0x40 MSTORE DUP1 SWAP3 SWAP2 SWAP1 DUP2 DUP2 MSTORE PUSH1 0x20 ADD PUSH1 0x0 SWAP1 JUMPDEST DUP3 DUP3 LT ISZERO PUSH2 0xD25 JUMPI PUSH1 0x0 DUP5 DUP2 MSTORE PUSH1 0x20 SWAP1 DUP2 SWAP1 KECCAK256 PUSH1 0x40 DUP1 MLOAD PUSH1 0xA0 DUP2 ADD SWAP1 SWAP2 MSTORE PUSH1 0x4 DUP6 MUL SWAP1 SWAP2 ADD DUP1 SLOAD PUSH1 0x1 PUSH1 0x1 PUSH1 0xA0 SHL SUB AND DUP3 MSTORE PUSH1 0x1 DUP2 ADD DUP1 SLOAD SWAP3 SWAP4 SWAP2 SWAP3 SWAP2 DUP5 ADD SWAP2 PUSH2 0xBD2 SWAP1 PUSH2 0x2EC2 JUMP JUMPDEST DUP1 PUSH1 0x1F ADD PUSH1 0x20 DUP1 SWAP2 DIV MUL PUSH1 0x20 ADD PUSH1 0x40 MLOAD SWAP1 DUP2 ADD PUSH1 0x40 MSTORE DUP1 SWAP3 SWAP2 SWAP1 DUP2 DUP2 MSTORE PUSH1 0x20 ADD DUP3 DUP1 SLOAD PUSH2 0xBFE SWAP1 PUSH2 0x2EC2 JUMP JUMPDEST DUP1 ISZERO PUSH2 0xC4B JUMPI DUP1 PUSH1 0x1F LT PUSH2 0xC20 JUMPI PUSH2 0x100 DUP1 DUP4 SLOAD DIV MUL DUP4 MSTORE SWAP2 PUSH1 0x20 ADD SWAP2 PUSH2 0xC4B JUMP JUMPDEST DUP3 ADD SWAP2 SWAP1 PUSH1 0x0 MSTORE PUSH1 0x20 PUSH1 0x0 KECCAK256 SWAP1 JUMPDEST DUP2 SLOAD DUP2 MSTORE SWAP1 PUSH1 0x1 ADD SWAP1 PUSH1 0x20 ADD DUP1 DUP4 GT PUSH2 0xC2E JUMPI DUP3 SWAP1 SUB PUSH1 0x1F AND DUP3 ADD SWAP2 JUMPDEST POP POP POP POP POP DUP2 MSTORE PUSH1 0x20 ADD PUSH1 0x2 DUP3 ADD DUP1 SLOAD PUSH2 0xC64 SWAP1 PUSH2 0x2EC2 JUMP JUMPDEST DUP1 PUSH1 0x1F ADD PUSH1 0x20 DUP1 SWAP2 DIV MUL PUSH1 0x20 ADD PUSH1 0x40 MLOAD SWAP1 DUP2 ADD PUSH1 0x40 MSTORE DUP1 SWAP3 SWAP2 SWAP1 DUP2 DUP2 MSTORE PUSH1 0x20 ADD DUP3 DUP1 SLOAD PUSH2 0xC90 SWAP1 PUSH2 0x2EC2 JUMP JUMPDEST DUP1 ISZERO PUSH2 0xCDD JUMPI DUP1 PUSH1 0x1F LT PUSH2 0xCB2 JUMPI PUSH2 0x100 DUP1 DUP4 SLOAD DIV MUL DUP4 MSTORE SWAP2 PUSH1 0x20 ADD SWAP2 PUSH2 0xCDD JUMP JUMPDEST DUP3 ADD SWAP2 SWAP1 PUSH1 0x0 MSTORE PUSH1 0x20 PUSH1 0x0 KECCAK256 SWAP1 JUMPDEST DUP2 SLOAD DUP2 MSTORE SWAP1 PUSH1 0x1 ADD SWAP1 PUSH1 0x20 ADD DUP1 DUP4 GT PUSH2 0xCC0 JUMPI DUP3 SWAP1 SUB PUSH1 0x1F AND DUP3 ADD SWAP2 JUMPDEST POP POP POP SWAP2 DUP4 MSTORE POP POP PUSH1 0x3 SWAP2 SWAP1 SWAP2 ADD SLOAD PUSH1 0x1 PUSH1 0x1 PUSH1 0xA0 SHL SUB DUP2 AND PUSH1 0x20 DUP1 DUP5 ADD SWAP2 SWAP1 SWAP2 MSTORE PUSH1 0x1 PUSH1 0xA0 SHL SWAP1 SWAP2 DIV PUSH1 0xFF AND ISZERO ISZERO PUSH1 0x40 SWAP1 SWAP3 ADD SWAP2 SWAP1 SWAP2 MSTORE SWAP1 DUP3 MSTORE PUSH1 0x1 SWAP3 SWAP1 SWAP3 ADD SWAP2 ADD PUSH2 0xB89 JUMP JUMPDEST POP POP POP POP DUP2 MSTORE POP POP DUP2 MSTORE PUSH1 0x20 ADD SWAP1 PUSH1 0x1 ADD SWAP1 PUSH2 0xA13 JUMP JUMPDEST POP POP POP POP DUP2 MSTORE PUSH1 0x20 ADD PUSH1 0x2 DUP3 ADD PUSH1 0x40 MLOAD DUP1 PUSH1 0x80 ADD PUSH1 0x40 MSTORE SWAP1 DUP2 PUSH1 0x0 DUP3 ADD DUP1 SLOAD PUSH2 0xD64 SWAP1 PUSH2 0x2EC2 JUMP JUMPDEST DUP1 PUSH1 0x1F ADD PUSH1 0x20 DUP1 SWAP2 DIV MUL PUSH1 0x20 ADD PUSH1 0x40 MLOAD SWAP1 DUP2 ADD PUSH1 0x40 MSTORE DUP1 SWAP3 SWAP2 SWAP1 DUP2 DUP2 MSTORE PUSH1 0x20 ADD DUP3 DUP1 SLOAD PUSH2 0xD90 SWAP1 PUSH2 0x2EC2 JUMP JUMPDEST DUP1 ISZERO PUSH2 0xDDD JUMPI DUP1 PUSH1 0x1F LT PUSH2 0xDB2 JUMPI PUSH2 0x100 DUP1 DUP4 SLOAD DIV MUL DUP4 MSTORE SWAP2 PUSH1 0x20 ADD SWAP2 PUSH2 0xDDD JUMP JUMPDEST DUP3 ADD SWAP2 SWAP1 PUSH1 0x0 MSTORE PUSH1 0x20 PUSH1 0x0 KECCAK256 SWAP1 JUMPDEST DUP2 SLOAD DUP2 MSTORE SWAP1 PUSH1 0x1 ADD SWAP1 PUSH1 0x20 ADD DUP1 DUP4 GT PUSH2 0xDC0 JUMPI DUP3 SWAP1 SUB PUSH1 0x1F AND DUP3 ADD SWAP2 JUMPDEST POP POP POP POP POP DUP2 MSTORE PUSH1 0x20 ADD PUSH1 0x1 DUP3 ADD DUP1 SLOAD PUSH2 0xDF6 SWAP1 PUSH2 0x2EC2 JUMP JUMPDEST DUP1 PUSH1 0x1F ADD PUSH1 0x20 DUP1 SWAP2 DIV MUL PUSH1 0x20 ADD PUSH1 0x40 MLOAD SWAP1 DUP2 ADD PUSH1 0x40 MSTORE DUP1 SWAP3 SWAP2 SWAP1 DUP2 DUP2 MSTORE PUSH1 0x20 ADD DUP3 DUP1 SLOAD PUSH2 0xE22 SWAP1 PUSH2 0x2EC2 JUMP JUMPDEST DUP1 ISZERO PUSH2 0xE6F JUMPI DUP1 PUSH1 0x1F LT PUSH2 0xE44 JUMPI PUSH2 0x100 DUP1 DUP4 SLOAD DIV MUL DUP4 MSTORE SWAP2 PUSH1 0x20 ADD SWAP2 PUSH2 0xE6F JUMP JUMPDEST DUP3 ADD SWAP2 SWAP1 PUSH1 0x0 MSTORE PUSH1 0x20 PUSH1 0x0 KECCAK256 SWAP1 JUMPDEST DUP2 SLOAD DUP2 MSTORE SWAP1 PUSH1 0x1 ADD SWAP1 PUSH1 0x20 ADD DUP1 DUP4 GT PUSH2 0xE52 JUMPI DUP3 SWAP1 SUB PUSH1 0x1F AND DUP3 ADD SWAP2 JUMPDEST POP POP POP POP POP DUP2 MSTORE PUSH1 0x20 ADD PUSH1 0x2 DUP3 ADD SLOAD DUP2 MSTORE PUSH1 0x20 ADD PUSH1 0x3 DUP3 ADD DUP1 SLOAD DUP1 PUSH1 0x20 MUL PUSH1 0x20 ADD PUSH1 0x40 MLOAD SWAP1 DUP2 ADD PUSH1 0x40 MSTORE DUP1 SWAP3 SWAP2 SWAP1 DUP2 DUP2 MSTORE PUSH1 0x20 ADD PUSH1 0x0 SWAP1 JUMPDEST DUP3 DUP3 LT ISZERO PUSH2 0x1043 JUMPI PUSH1 0x0 DUP5 DUP2 MSTORE PUSH1 0x20 SWAP1 DUP2 SWAP1 KECCAK256 PUSH1 0x40 DUP1 MLOAD PUSH1 0xA0 DUP2 ADD SWAP1 SWAP2 MSTORE PUSH1 0x4 DUP6 MUL SWAP1 SWAP2 ADD DUP1 SLOAD PUSH1 0x1 PUSH1 0x1 PUSH1 0xA0 SHL SUB AND DUP3 MSTORE PUSH1 0x1 DUP2 ADD DUP1 SLOAD SWAP3 SWAP4 SWAP2 SWAP3 SWAP2 DUP5 ADD SWAP2 PUSH2 0xEF0 SWAP1 PUSH2 0x2EC2 JUMP JUMPDEST DUP1 PUSH1 0x1F ADD PUSH1 0x20 DUP1 SWAP2 DIV MUL PUSH1 0x20 ADD PUSH1 0x40 MLOAD SWAP1 DUP2 ADD PUSH1 0x40 MSTORE DUP1 SWAP3 SWAP2 SWAP1 DUP2 DUP2 MSTORE PUSH1 0x20 ADD DUP3 DUP1 SLOAD PUSH2 0xF1C SWAP1 PUSH2 0x2EC2 JUMP JUMPDEST DUP1 ISZERO PUSH2 0xF69 JUMPI DUP1 PUSH1 0x1F LT PUSH2 0xF3E JUMPI PUSH2 0x100 DUP1 DUP4 SLOAD DIV MUL DUP4 MSTORE SWAP2 PUSH1 0x20 ADD SWAP2 PUSH2 0xF69 JUMP JUMPDEST DUP3 ADD SWAP2 SWAP1 PUSH1 0x0 MSTORE PUSH1 0x20 PUSH1 0x0 KECCAK256 SWAP1 JUMPDEST DUP2 SLOAD DUP2 MSTORE SWAP1 PUSH1 0x1 ADD SWAP1 PUSH1 0x20 ADD DUP1 DUP4 GT PUSH2 0xF4C JUMPI DUP3 SWAP1 SUB PUSH1 0x1F AND DUP3 ADD SWAP2 JUMPDEST POP POP POP POP POP DUP2 MSTORE PUSH1 0x20 ADD PUSH1 0x2 DUP3 ADD DUP1 SLOAD PUSH2 0xF82 SWAP1 PUSH2 0x2EC2 JUMP JUMPDEST DUP1 PUSH1 0x1F ADD PUSH1 0x20 DUP1 SWAP2 DIV MUL PUSH1 0x20 ADD PUSH1 0x40 MLOAD SWAP1 DUP2 ADD PUSH1 0x40 MSTORE DUP1 SWAP3 SWAP2 SWAP1 DUP2 DUP2 MSTORE PUSH1 0x20 ADD DUP3 DUP1 SLOAD PUSH2 0xFAE SWAP1 PUSH2 0x2EC2 JUMP JUMPDEST DUP1 ISZERO PUSH2 0xFFB JUMPI DUP1 PUSH1 0x1F LT PUSH2 0xFD0 JUMPI PUSH2 0x100 DUP1 DUP4 SLOAD DIV MUL DUP4 MSTORE SWAP2 PUSH1 0x20 ADD SWAP2 PUSH2 0xFFB JUMP JUMPDEST DUP3 ADD SWAP2 SWAP1 PUSH1 0x0 MSTORE PUSH1 0x20 PUSH1 0x0 KECCAK256 SWAP1 JUMPDEST DUP2 SLOAD DUP2 MSTORE SWAP1 PUSH1 0x1 ADD SWAP1 PUSH1 0x20 ADD DUP1 DUP4 GT PUSH2 0xFDE JUMPI DUP3 SWAP1 SUB PUSH1 0x1F AND DUP3 ADD SWAP2 JUMPDEST POP POP POP SWAP2 DUP4 MSTORE POP POP PUSH1 0x3 SWAP2 SWAP1 SWAP2 ADD SLOAD PUSH1 0x1 PUSH1 0x1 PUSH1 0xA0 SHL SUB DUP2 AND PUSH1 0x20 DUP1 DUP5 ADD SWAP2 SWAP1 SWAP2 MSTORE PUSH1 0x1 PUSH1 0xA0 SHL SWAP1 SWAP2 DIV PUSH1 0xFF AND ISZERO ISZERO PUSH1 0x40 SWAP1 SWAP3 ADD SWAP2 SWAP1 SWAP2 MSTORE SWAP1 DUP3 MSTORE PUSH1 0x1 SWAP3 SWAP1 SWAP3 ADD SWAP2 ADD PUSH2 0xEA7 JUMP JUMPDEST POP POP POP SWAP2 MSTORE POP POP SWAP1 MSTORE POP SWAP4 SWAP3 POP POP POP JUMP JUMPDEST PUSH1 0x40 DUP1 MLOAD PUSH1 0x60 DUP1 DUP3 ADD DUP4 MSTORE DUP2 MSTORE PUSH1 0x0 PUSH1 0x20 DUP3 ADD DUP2 SWAP1 MSTORE SWAP2 DUP2 ADD SWAP2 SWAP1 SWAP2 MSTORE PUSH1 0x1 PUSH1 0x1 PUSH1 0xA0 SHL SUB DUP3 AND PUSH1 0x0 SWAP1 DUP2 MSTORE PUSH1 0x20 DUP2 SWAP1 MSTORE PUSH1 0x40 SWAP1 DUP2 SWAP1 KECCAK256 DUP2 MLOAD PUSH1 0x60 DUP2 ADD SWAP1 SWAP3 MSTORE DUP1 SLOAD DUP3 SWAP1 DUP3 SWAP1 PUSH2 0x10A3 SWAP1 PUSH2 0x2EC2 JUMP JUMPDEST DUP1 PUSH1 0x1F ADD PUSH1 0x20 DUP1 SWAP2 DIV MUL PUSH1 0x20 ADD PUSH1 0x40 MLOAD SWAP1 DUP2 ADD PUSH1 0x40 MSTORE DUP1 SWAP3 SWAP2 SWAP1 DUP2 DUP2 MSTORE PUSH1 0x20 ADD DUP3 DUP1 SLOAD PUSH2 0x10CF SWAP1 PUSH2 0x2EC2 JUMP JUMPDEST DUP1 ISZERO PUSH2 0x111C JUMPI DUP1 PUSH1 0x1F LT PUSH2 0x10F1 JUMPI PUSH2 0x100 DUP1 DUP4 SLOAD DIV MUL DUP4 MSTORE SWAP2 PUSH1 0x20 ADD SWAP2 PUSH2 0x111C JUMP JUMPDEST DUP3 ADD SWAP2 SWAP1 PUSH1 0x0 MSTORE PUSH1 0x20 PUSH1 0x0 KECCAK256 SWAP1 JUMPDEST DUP2 SLOAD DUP2 MSTORE SWAP1 PUSH1 0x1 ADD SWAP1 PUSH1 0x20 ADD DUP1 DUP4 GT PUSH2 0x10FF JUMPI DUP3 SWAP1 SUB PUSH1 0x1F AND DUP3 ADD SWAP2 JUMPDEST POP POP POP SWAP2 DUP4 MSTORE POP POP PUSH1 0x1 DUP3 ADD SLOAD PUSH1 0x20 SWAP1 SWAP2 ADD SWAP1 PUSH1 0xFF AND PUSH1 0x2 DUP2 GT ISZERO PUSH2 0x1143 JUMPI PUSH2 0x1143 PUSH2 0x29CC JUMP JUMPDEST PUSH1 0x2 DUP2 GT ISZERO PUSH2 0x1154 JUMPI PUSH2 0x1154 PUSH2 0x29CC JUMP JUMPDEST DUP2 MSTORE PUSH1 0x1 SWAP2 SWAP1 SWAP2 ADD SLOAD PUSH2 0x100 SWAP1 DIV PUSH1 0x1 PUSH1 0x1 PUSH1 0xA0 SHL SUB AND PUSH1 0x20 SWAP1 SWAP2 ADD MSTORE SWAP3 SWAP2 POP POP JUMP JUMPDEST CALLER PUSH1 0x0 SWAP1 DUP2 MSTORE PUSH1 0x20 DUP2 SWAP1 MSTORE PUSH1 0x40 SWAP1 KECCAK256 DUP1 SLOAD PUSH2 0x1196 SWAP2 SWAP1 PUSH2 0x47C SWAP1 PUSH2 0x2EC2 JUMP JUMPDEST ISZERO PUSH2 0x11CA JUMPI PUSH1 0x40 DUP1 MLOAD DUP1 DUP3 ADD SWAP1 SWAP2 MSTORE PUSH1 0x13 DUP2 MSTORE PUSH19 0x155CD95C881B9BDD081C9959DA5CDD195C9959 PUSH1 0x6A SHL PUSH1 0x20 DUP3 ADD MSTORE PUSH2 0x2BA JUMP JUMPDEST CALLER PUSH1 0x0 SWAP1 DUP2 MSTORE PUSH1 0x20 DUP2 SWAP1 MSTORE PUSH1 0x40 DUP2 KECCAK256 PUSH1 0x1 ADD SLOAD PUSH1 0xFF AND PUSH1 0x2 DUP2 GT ISZERO PUSH2 0x11F1 JUMPI PUSH2 0x11F1 PUSH2 0x29CC JUMP JUMPDEST EQ PUSH2 0x1220 JUMPI PUSH1 0x40 DUP1 MLOAD DUP1 DUP3 ADD SWAP1 SWAP2 MSTORE PUSH1 0xE DUP2 MSTORE PUSH14 0x155CD95C881B9BDD081C1A5B1BDD PUSH1 0x92 SHL PUSH1 0x20 DUP3 ADD MSTORE PUSH2 0x2BA JUMP JUMPDEST CALLER PUSH1 0x0 SWAP1 DUP2 MSTORE PUSH1 0x20 DUP2 SWAP1 MSTORE PUSH1 0x40 SWAP1 KECCAK256 PUSH1 0x1 SWAP1 DUP2 ADD DUP1 SLOAD PUSH1 0xFF NOT AND SWAP1 SWAP2 OR SWAP1 SSTORE JUMP JUMPDEST CALLER PUSH1 0x0 SWAP1 DUP2 MSTORE PUSH1 0x20 DUP2 SWAP1 MSTORE PUSH1 0x40 DUP2 KECCAK256 PUSH1 0x1 ADD SLOAD PUSH1 0xFF AND PUSH1 0x2 DUP2 GT ISZERO PUSH2 0x1268 JUMPI PUSH2 0x1268 PUSH2 0x29CC JUMP JUMPDEST EQ ISZERO DUP1 ISZERO PUSH2 0x129D JUMPI POP PUSH1 0x1 CALLER PUSH1 0x0 SWAP1 DUP2 MSTORE PUSH1 0x20 DUP2 SWAP1 MSTORE PUSH1 0x40 SWAP1 KECCAK256 PUSH1 0x1 ADD SLOAD PUSH1 0xFF AND PUSH1 0x2 DUP2 GT ISZERO PUSH2 0x129A JUMPI PUSH2 0x129A PUSH2 0x29CC JUMP JUMPDEST EQ ISZERO JUMPDEST ISZERO PUSH2 0x12AA JUMPI PUSH2 0x2BA PUSH2 0x2089 JUMP JUMPDEST PUSH1 0x1 PUSH1 0x1 PUSH1 0xA0 SHL SUB AND PUSH1 0x0 DUP2 DUP2 MSTORE PUSH1 0x2 PUSH1 0x20 SWAP1 DUP2 MSTORE PUSH1 0x40 DUP1 DUP4 KECCAK256 CALLER DUP1 DUP6 MSTORE DUP2 DUP5 MSTORE DUP3 DUP6 KECCAK256 DUP1 SLOAD PUSH1 0x1 PUSH1 0xFF NOT SWAP2 DUP3 AND DUP2 OR SWAP1 SWAP3 SSTORE SWAP3 DUP2 ADD DUP1 SLOAD DUP1 DUP4 ADD DUP3 SSTORE SWAP1 DUP8 MSTORE DUP6 DUP8 KECCAK256 ADD DUP1 SLOAD PUSH1 0x1 PUSH1 0x1 PUSH1 0xA0 SHL SUB NOT SWAP1 DUP2 AND DUP5 OR SWAP1 SWAP2 SSTORE SWAP2 DUP7 MSTORE PUSH1 0x3 DUP1 DUP7 MSTORE DUP5 DUP8 KECCAK256 DUP9 DUP9 MSTORE DUP1 DUP8 MSTORE SWAP5 DUP8 KECCAK256 DUP1 SLOAD SWAP1 SWAP5 AND DUP3 OR SWAP1 SWAP4 SSTORE SWAP2 DUP5 MSTORE SWAP2 DUP2 ADD DUP1 SLOAD SWAP2 DUP3 ADD DUP2 SSTORE DUP5 MSTORE SWAP2 SWAP1 SWAP3 KECCAK256 ADD DUP1 SLOAD SWAP1 SWAP2 AND SWAP1 SWAP2 OR SWAP1 SSTORE JUMP JUMPDEST PUSH1 0x1 CALLER PUSH1 0x0 SWAP1 DUP2 MSTORE PUSH1 0x20 DUP2 SWAP1 MSTORE PUSH1 0x40 SWAP1 KECCAK256 PUSH1 0x1 ADD SLOAD PUSH1 0xFF AND PUSH1 0x2 DUP2 GT ISZERO PUSH2 0x1368 JUMPI PUSH2 0x1368 PUSH2 0x29CC JUMP JUMPDEST EQ PUSH2 0x1375 JUMPI PUSH2 0x2BA PUSH2 0x20C0 JUMP JUMPDEST PUSH1 0x0 PUSH2 0x1382 DUP5 DUP5 DUP5 PUSH2 0x20E9 JUMP JUMPDEST SWAP1 POP PUSH1 0x0 PUSH2 0x1391 DUP6 DUP6 DUP6 PUSH2 0x22BE JUMP JUMPDEST SWAP1 POP DUP2 ISZERO DUP1 PUSH2 0x139E JUMPI POP DUP1 ISZERO JUMPDEST ISZERO PUSH2 0x13DC JUMPI PUSH1 0x40 DUP1 MLOAD DUP1 DUP3 ADD SWAP1 SWAP2 MSTORE PUSH1 0x17 DUP2 MSTORE PUSH32 0x4973206E6F74207369676E657220666F7220656E747279000000000000000000 PUSH1 0x20 DUP3 ADD MSTORE PUSH2 0x2BA JUMP JUMPDEST POP POP POP POP POP JUMP JUMPDEST CALLER PUSH1 0x0 SWAP1 DUP2 MSTORE PUSH1 0x20 DUP2 SWAP1 MSTORE PUSH1 0x40 DUP2 KECCAK256 PUSH1 0x1 ADD SLOAD PUSH1 0xFF AND PUSH1 0x2 DUP2 GT ISZERO PUSH2 0x140A JUMPI PUSH2 0x140A PUSH2 0x29CC JUMP JUMPDEST EQ ISZERO DUP1 ISZERO PUSH2 0x143F JUMPI POP PUSH1 0x1 CALLER PUSH1 0x0 SWAP1 DUP2 MSTORE PUSH1 0x20 DUP2 SWAP1 MSTORE PUSH1 0x40 SWAP1 KECCAK256 PUSH1 0x1 ADD SLOAD PUSH1 0xFF AND PUSH1 0x2 DUP2 GT ISZERO PUSH2 0x143C JUMPI PUSH2 0x143C PUSH2 0x29CC JUMP JUMPDEST EQ ISZERO JUMPDEST ISZERO PUSH2 0x144C JUMPI PUSH2 0x2BA PUSH2 0x2089 JUMP JUMPDEST CALLER PUSH1 0x0 SWAP1 DUP2 MSTORE PUSH1 0x1 PUSH1 0x20 MSTORE PUSH1 0x40 SWAP1 KECCAK256 PUSH1 0x2 ADD DUP1 SLOAD PUSH2 0x146E SWAP2 SWAP1 PUSH2 0x47C SWAP1 PUSH2 0x2EC2 JUMP JUMPDEST ISZERO PUSH2 0x1491 JUMPI CALLER PUSH1 0x0 SWAP1 DUP2 MSTORE PUSH1 0x1 PUSH1 0x20 MSTORE PUSH1 0x40 SWAP1 KECCAK256 PUSH1 0x2 ADD PUSH2 0x148F DUP4 DUP3 PUSH2 0x310A JUMP JUMPDEST POP JUMPDEST CALLER PUSH1 0x0 SWAP1 DUP2 MSTORE PUSH1 0x1 PUSH1 0x20 MSTORE PUSH1 0x40 SWAP1 KECCAK256 PUSH1 0x3 ADD PUSH2 0x14AD DUP4 DUP3 PUSH2 0x310A JUMP JUMPDEST POP PUSH1 0x40 DUP1 MLOAD PUSH1 0xA0 DUP2 ADD DUP3 MSTORE CALLER DUP1 DUP3 MSTORE PUSH1 0x0 SWAP1 DUP2 MSTORE PUSH1 0x1 PUSH1 0x20 SWAP1 DUP2 MSTORE SWAP3 DUP2 KECCAK256 PUSH1 0x2 ADD DUP1 SLOAD SWAP2 SWAP4 DUP4 ADD SWAP2 PUSH2 0x14DE SWAP1 PUSH2 0x2EC2 JUMP JUMPDEST DUP1 PUSH1 0x1F ADD PUSH1 0x20 DUP1 SWAP2 DIV MUL PUSH1 0x20 ADD PUSH1 0x40 MLOAD SWAP1 DUP2 ADD PUSH1 0x40 MSTORE DUP1 SWAP3 SWAP2 SWAP1 DUP2 DUP2 MSTORE PUSH1 0x20 ADD DUP3 DUP1 SLOAD PUSH2 0x150A SWAP1 PUSH2 0x2EC2 JUMP JUMPDEST DUP1 ISZERO PUSH2 0x1557 JUMPI DUP1 PUSH1 0x1F LT PUSH2 0x152C JUMPI PUSH2 0x100 DUP1 DUP4 SLOAD DIV MUL DUP4 MSTORE SWAP2 PUSH1 0x20 ADD SWAP2 PUSH2 0x1557 JUMP JUMPDEST DUP3 ADD SWAP2 SWAP1 PUSH1 0x0 MSTORE PUSH1 0x20 PUSH1 0x0 KECCAK256 SWAP1 JUMPDEST DUP2 SLOAD DUP2 MSTORE SWAP1 PUSH1 0x1 ADD SWAP1 PUSH1 0x20 ADD DUP1 DUP4 GT PUSH2 0x153A JUMPI DUP3 SWAP1 SUB PUSH1 0x1F AND DUP3 ADD SWAP2 JUMPDEST POP POP POP SWAP2 DUP4 MSTORE POP POP PUSH1 0x20 DUP1 DUP3 ADD DUP7 SWAP1 MSTORE PUSH1 0x1 PUSH1 0x1 PUSH1 0xA0 SHL SUB DUP6 DUP2 AND PUSH1 0x40 DUP1 DUP6 ADD SWAP2 SWAP1 SWAP2 MSTORE PUSH1 0x0 PUSH1 0x60 SWAP1 SWAP5 ADD DUP5 SWAP1 MSTORE CALLER DUP5 MSTORE PUSH1 0x1 DUP1 DUP5 MSTORE SWAP1 DUP5 KECCAK256 PUSH1 0x5 ADD DUP1 SLOAD DUP1 DUP4 ADD DUP3 SSTORE SWAP1 DUP6 MSTORE SWAP4 DUP4 SWAP1 KECCAK256 DUP6 MLOAD PUSH1 0x4 SWAP1 SWAP6 MUL ADD DUP1 SLOAD PUSH1 0x1 PUSH1 0x1 PUSH1 0xA0 SHL SUB NOT AND SWAP5 SWAP1 SWAP3 AND SWAP4 SWAP1 SWAP4 OR DUP2 SSTORE SWAP1 DUP4 ADD MLOAD SWAP3 SWAP4 POP DUP4 SWAP3 SWAP1 SWAP2 DUP3 ADD SWAP1 PUSH2 0x15D7 SWAP1 DUP3 PUSH2 0x310A JUMP JUMPDEST POP PUSH1 0x40 DUP3 ADD MLOAD PUSH1 0x2 DUP3 ADD SWAP1 PUSH2 0x15EC SWAP1 DUP3 PUSH2 0x310A JUMP JUMPDEST POP PUSH1 0x60 DUP3 ADD MLOAD PUSH1 0x3 SWAP1 SWAP2 ADD DUP1 SLOAD PUSH1 0x80 SWAP1 SWAP4 ADD MLOAD ISZERO ISZERO PUSH1 0x1 PUSH1 0xA0 SHL MUL PUSH1 0x1 PUSH1 0x1 PUSH1 0xA8 SHL SUB NOT SWAP1 SWAP4 AND PUSH1 0x1 PUSH1 0x1 PUSH1 0xA0 SHL SUB SWAP1 SWAP3 AND SWAP2 SWAP1 SWAP2 OR SWAP2 SWAP1 SWAP2 OR SWAP1 SSTORE CALLER PUSH1 0x0 SWAP1 DUP2 MSTORE PUSH1 0x1 PUSH1 0x20 MSTORE PUSH1 0x40 DUP2 KECCAK256 PUSH1 0x4 ADD DUP1 SLOAD SWAP2 PUSH2 0x1646 DUP4 PUSH2 0x31B3 JUMP JUMPDEST SWAP1 SWAP2 SSTORE POP POP PUSH1 0x1 PUSH1 0x1 PUSH1 0xA0 SHL SUB DUP3 DUP2 AND PUSH1 0x0 SWAP1 DUP2 MSTORE PUSH1 0x4 PUSH1 0x20 DUP2 DUP2 MSTORE PUSH1 0x40 DUP4 KECCAK256 PUSH1 0x1 SWAP1 DUP2 ADD DUP1 SLOAD DUP1 DUP4 ADD DUP3 SSTORE SWAP1 DUP6 MSTORE SWAP4 DUP3 SWAP1 KECCAK256 DUP7 MLOAD SWAP5 SWAP1 SWAP4 MUL SWAP1 SWAP3 ADD DUP1 SLOAD PUSH1 0x1 PUSH1 0x1 PUSH1 0xA0 SHL SUB NOT AND SWAP4 SWAP1 SWAP5 AND SWAP3 SWAP1 SWAP3 OR DUP4 SSTORE SWAP1 DUP4 ADD MLOAD DUP4 SWAP3 SWAP2 DUP3 ADD SWAP1 PUSH2 0x16AC SWAP1 DUP3 PUSH2 0x310A JUMP JUMPDEST POP PUSH1 0x40 DUP3 ADD MLOAD PUSH1 0x2 DUP3 ADD SWAP1 PUSH2 0x16C1 SWAP1 DUP3 PUSH2 0x310A JUMP JUMPDEST POP PUSH1 0x60 DUP3 ADD MLOAD PUSH1 0x3 SWAP1 SWAP2 ADD DUP1 SLOAD PUSH1 0x80 SWAP1 SWAP4 ADD MLOAD ISZERO ISZERO PUSH1 0x1 PUSH1 0xA0 SHL MUL PUSH1 0x1 PUSH1 0x1 PUSH1 0xA8 SHL SUB NOT SWAP1 SWAP4 AND PUSH1 0x1 PUSH1 0x1 PUSH1 0xA0 SHL SUB SWAP3 DUP4 AND OR SWAP3 SWAP1 SWAP3 OR SWAP1 SWAP2 SSTORE DUP3 AND PUSH1 0x0 SWAP1 DUP2 MSTORE PUSH1 0x4 PUSH1 0x20 MSTORE PUSH1 0x40 DUP2 KECCAK256 DUP1 SLOAD SWAP2 PUSH2 0x1717 DUP4 PUSH2 0x31B3 JUMP JUMPDEST SWAP2 SWAP1 POP SSTORE POP POP POP POP JUMP JUMPDEST PUSH1 0x60 PUSH1 0x1 CALLER PUSH1 0x0 SWAP1 DUP2 MSTORE PUSH1 0x20 DUP2 SWAP1 MSTORE PUSH1 0x40 SWAP1 KECCAK256 PUSH1 0x1 ADD SLOAD PUSH1 0xFF AND PUSH1 0x2 DUP2 GT ISZERO PUSH2 0x174C JUMPI PUSH2 0x174C PUSH2 0x29CC JUMP JUMPDEST EQ PUSH2 0x1759 JUMPI PUSH2 0x2BA PUSH2 0x20C0 JUMP JUMPDEST PUSH1 0x0 DUP1 JUMPDEST CALLER PUSH1 0x0 SWAP1 DUP2 MSTORE PUSH1 0x4 PUSH1 0x20 MSTORE PUSH1 0x40 SWAP1 KECCAK256 SLOAD DUP3 EQ PUSH2 0x17DE JUMPI CALLER PUSH1 0x0 SWAP1 DUP2 MSTORE PUSH1 0x4 PUSH1 0x20 MSTORE PUSH1 0x40 DUP2 KECCAK256 PUSH1 0x1 ADD DUP1 SLOAD DUP5 SWAP1 DUP2 LT PUSH2 0x1797 JUMPI PUSH2 0x1797 PUSH2 0x31CC JUMP JUMPDEST SWAP1 PUSH1 0x0 MSTORE PUSH1 0x20 PUSH1 0x0 KECCAK256 SWAP1 PUSH1 0x4 MUL ADD SWAP1 POP DUP1 PUSH1 0x3 ADD PUSH1 0x14 SWAP1 SLOAD SWAP1 PUSH2 0x100 EXP SWAP1 DIV PUSH1 0xFF AND PUSH2 0x17CB JUMPI DUP2 PUSH2 0x17C7 DUP2 PUSH2 0x31B3 JUMP JUMPDEST SWAP3 POP POP JUMPDEST POP DUP2 PUSH2 0x17D6 DUP2 PUSH2 0x31B3 JUMP JUMPDEST SWAP3 POP POP PUSH2 0x175D JUMP JUMPDEST PUSH1 0x0 DUP2 PUSH1 0x1 PUSH1 0x1 PUSH1 0x40 SHL SUB DUP2 GT ISZERO PUSH2 0x17F8 JUMPI PUSH2 0x17F8 PUSH2 0x2D35 JUMP JUMPDEST PUSH1 0x40 MLOAD SWAP1 DUP1 DUP3 MSTORE DUP1 PUSH1 0x20 MUL PUSH1 0x20 ADD DUP3 ADD PUSH1 0x40 MSTORE DUP1 ISZERO PUSH2 0x1831 JUMPI DUP2 PUSH1 0x20 ADD JUMPDEST PUSH2 0x181E PUSH2 0x2874 JUMP JUMPDEST DUP2 MSTORE PUSH1 0x20 ADD SWAP1 PUSH1 0x1 SWAP1 SUB SWAP1 DUP2 PUSH2 0x1816 JUMPI SWAP1 POP JUMPDEST POP SWAP1 POP PUSH1 0x0 DUP1 SWAP4 POP JUMPDEST CALLER PUSH1 0x0 SWAP1 DUP2 MSTORE PUSH1 0x4 PUSH1 0x20 MSTORE PUSH1 0x40 SWAP1 KECCAK256 SLOAD DUP5 EQ PUSH2 0x1A4A JUMPI CALLER PUSH1 0x0 SWAP1 DUP2 MSTORE PUSH1 0x4 PUSH1 0x20 MSTORE PUSH1 0x40 DUP2 KECCAK256 PUSH1 0x1 ADD DUP1 SLOAD DUP7 SWAP1 DUP2 LT PUSH2 0x1874 JUMPI PUSH2 0x1874 PUSH2 0x31CC JUMP JUMPDEST SWAP1 PUSH1 0x0 MSTORE PUSH1 0x20 PUSH1 0x0 KECCAK256 SWAP1 PUSH1 0x4 MUL ADD SWAP1 POP DUP1 PUSH1 0x3 ADD PUSH1 0x14 SWAP1 SLOAD SWAP1 PUSH2 0x100 EXP SWAP1 DIV PUSH1 0xFF AND PUSH2 0x1A37 JUMPI PUSH1 0x40 DUP1 MLOAD PUSH1 0xA0 DUP2 ADD SWAP1 SWAP2 MSTORE DUP2 SLOAD PUSH1 0x1 PUSH1 0x1 PUSH1 0xA0 SHL SUB AND DUP2 MSTORE PUSH1 0x1 DUP3 ADD DUP1 SLOAD PUSH1 0x0 SWAP3 SWAP2 PUSH1 0x20 DUP4 ADD SWAP2 PUSH2 0x18CA SWAP1 PUSH2 0x2EC2 JUMP JUMPDEST DUP1 PUSH1 0x1F ADD PUSH1 0x20 DUP1 SWAP2 DIV MUL PUSH1 0x20 ADD PUSH1 0x40 MLOAD SWAP1 DUP2 ADD PUSH1 0x40 MSTORE DUP1 SWAP3 SWAP2 SWAP1 DUP2 DUP2 MSTORE PUSH1 0x20 ADD DUP3 DUP1 SLOAD PUSH2 0x18F6 SWAP1 PUSH2 0x2EC2 JUMP JUMPDEST DUP1 ISZERO PUSH2 0x1943 JUMPI DUP1 PUSH1 0x1F LT PUSH2 0x1918 JUMPI PUSH2 0x100 DUP1 DUP4 SLOAD DIV MUL DUP4 MSTORE SWAP2 PUSH1 0x20 ADD SWAP2 PUSH2 0x1943 JUMP JUMPDEST DUP3 ADD SWAP2 SWAP1 PUSH1 0x0 MSTORE PUSH1 0x20 PUSH1 0x0 KECCAK256 SWAP1 JUMPDEST DUP2 SLOAD DUP2 MSTORE SWAP1 PUSH1 0x1 ADD SWAP1 PUSH1 0x20 ADD DUP1 DUP4 GT PUSH2 0x1926 JUMPI DUP3 SWAP1 SUB PUSH1 0x1F AND DUP3 ADD SWAP2 JUMPDEST POP POP POP POP POP DUP2 MSTORE PUSH1 0x20 ADD DUP4 PUSH1 0x2 ADD DUP1 SLOAD PUSH2 0x195C SWAP1 PUSH2 0x2EC2 JUMP JUMPDEST DUP1 PUSH1 0x1F ADD PUSH1 0x20 DUP1 SWAP2 DIV MUL PUSH1 0x20 ADD PUSH1 0x40 MLOAD SWAP1 DUP2 ADD PUSH1 0x40 MSTORE DUP1 SWAP3 SWAP2 SWAP1 DUP2 DUP2 MSTORE PUSH1 0x20 ADD DUP3 DUP1 SLOAD PUSH2 0x1988 SWAP1 PUSH2 0x2EC2 JUMP JUMPDEST DUP1 ISZERO PUSH2 0x19D5 JUMPI DUP1 PUSH1 0x1F LT PUSH2 0x19AA JUMPI PUSH2 0x100 DUP1 DUP4 SLOAD DIV MUL DUP4 MSTORE SWAP2 PUSH1 0x20 ADD SWAP2 PUSH2 0x19D5 JUMP JUMPDEST DUP3 ADD SWAP2 SWAP1 PUSH1 0x0 MSTORE PUSH1 0x20 PUSH1 0x0 KECCAK256 SWAP1 JUMPDEST DUP2 SLOAD DUP2 MSTORE SWAP1 PUSH1 0x1 ADD SWAP1 PUSH1 0x20 ADD DUP1 DUP4 GT PUSH2 0x19B8 JUMPI DUP3 SWAP1 SUB PUSH1 0x1F AND DUP3 ADD SWAP2 JUMPDEST POP POP POP SWAP2 DUP4 MSTORE POP POP PUSH1 0x3 DUP5 ADD SLOAD PUSH1 0x1 PUSH1 0x1 PUSH1 0xA0 SHL SUB DUP2 AND PUSH1 0x20 DUP4 ADD MSTORE PUSH1 0x1 PUSH1 0xA0 SHL SWAP1 DIV PUSH1 0xFF AND ISZERO ISZERO PUSH1 0x40 SWAP1 SWAP2 ADD MSTORE DUP5 MLOAD SWAP1 SWAP2 POP DUP2 SWAP1 DUP6 SWAP1 DUP6 SWAP1 DUP2 LT PUSH2 0x1A1C JUMPI PUSH2 0x1A1C PUSH2 0x31CC JUMP JUMPDEST PUSH1 0x20 MUL PUSH1 0x20 ADD ADD DUP2 SWAP1 MSTORE POP DUP3 DUP1 PUSH2 0x1A32 SWAP1 PUSH2 0x31B3 JUMP JUMPDEST SWAP4 POP POP POP JUMPDEST POP DUP4 PUSH2 0x1A42 DUP2 PUSH2 0x31B3 JUMP JUMPDEST SWAP5 POP POP PUSH2 0x183A JUMP JUMPDEST POP SWAP3 POP POP POP SWAP1 JUMP JUMPDEST PUSH1 0x60 PUSH1 0x1 CALLER PUSH1 0x0 SWAP1 DUP2 MSTORE PUSH1 0x20 DUP2 SWAP1 MSTORE PUSH1 0x40 SWAP1 KECCAK256 PUSH1 0x1 ADD SLOAD PUSH1 0xFF AND PUSH1 0x2 DUP2 GT ISZERO PUSH2 0x1A7D JUMPI PUSH2 0x1A7D PUSH2 0x29CC JUMP JUMPDEST EQ PUSH2 0x1A8A JUMPI PUSH2 0x2BA PUSH2 0x20C0 JUMP JUMPDEST PUSH1 0x0 DUP1 JUMPDEST CALLER PUSH1 0x0 SWAP1 DUP2 MSTORE PUSH1 0x4 PUSH1 0x20 MSTORE PUSH1 0x40 SWAP1 KECCAK256 SLOAD DUP3 EQ PUSH2 0x1B10 JUMPI CALLER PUSH1 0x0 SWAP1 DUP2 MSTORE PUSH1 0x4 PUSH1 0x20 MSTORE PUSH1 0x40 DUP2 KECCAK256 PUSH1 0x1 ADD DUP1 SLOAD DUP5 SWAP1 DUP2 LT PUSH2 0x1AC8 JUMPI PUSH2 0x1AC8 PUSH2 0x31CC JUMP JUMPDEST SWAP1 PUSH1 0x0 MSTORE PUSH1 0x20 PUSH1 0x0 KECCAK256 SWAP1 PUSH1 0x4 MUL ADD SWAP1 POP DUP1 PUSH1 0x3 ADD PUSH1 0x14 SWAP1 SLOAD SWAP1 PUSH2 0x100 EXP SWAP1 DIV PUSH1 0xFF AND ISZERO PUSH2 0x1AFD JUMPI DUP2 PUSH2 0x1AF9 DUP2 PUSH2 0x31B3 JUMP JUMPDEST SWAP3 POP POP JUMPDEST POP DUP2 PUSH2 0x1B08 DUP2 PUSH2 0x31B3 JUMP JUMPDEST SWAP3 POP POP PUSH2 0x1A8E JUMP JUMPDEST PUSH1 0x0 DUP2 PUSH1 0x1 PUSH1 0x1 PUSH1 0x40 SHL SUB DUP2 GT ISZERO PUSH2 0x1B2A JUMPI PUSH2 0x1B2A PUSH2 0x2D35 JUMP JUMPDEST PUSH1 0x40 MLOAD SWAP1 DUP1 DUP3 MSTORE DUP1 PUSH1 0x20 MUL PUSH1 0x20 ADD DUP3 ADD PUSH1 0x40 MSTORE DUP1 ISZERO PUSH2 0x1B63 JUMPI DUP2 PUSH1 0x20 ADD JUMPDEST PUSH2 0x1B50 PUSH2 0x2874 JUMP JUMPDEST DUP2 MSTORE PUSH1 0x20 ADD SWAP1 PUSH1 0x1 SWAP1 SUB SWAP1 DUP2 PUSH2 0x1B48 JUMPI SWAP1 POP JUMPDEST POP SWAP1 POP PUSH1 0x0 DUP1 SWAP4 POP JUMPDEST CALLER PUSH1 0x0 SWAP1 DUP2 MSTORE PUSH1 0x4 PUSH1 0x20 MSTORE PUSH1 0x40 SWAP1 KECCAK256 SLOAD DUP5 EQ PUSH2 0x1A4A JUMPI CALLER PUSH1 0x0 SWAP1 DUP2 MSTORE PUSH1 0x4 PUSH1 0x20 MSTORE PUSH1 0x40 DUP2 KECCAK256 PUSH1 0x1 ADD DUP1 SLOAD DUP7 SWAP1 DUP2 LT PUSH2 0x1BA6 JUMPI PUSH2 0x1BA6 PUSH2 0x31CC JUMP JUMPDEST SWAP1 PUSH1 0x0 MSTORE PUSH1 0x20 PUSH1 0x0 KECCAK256 SWAP1 PUSH1 0x4 MUL ADD SWAP1 POP DUP1 PUSH1 0x3 ADD PUSH1 0x14 SWAP1 SLOAD SWAP1 PUSH2 0x100 EXP SWAP1 DIV PUSH1 0xFF AND ISZERO PUSH2 0x1D6A JUMPI PUSH1 0x40 DUP1 MLOAD PUSH1 0xA0 DUP2 ADD SWAP1 SWAP2 MSTORE DUP2 SLOAD PUSH1 0x1 PUSH1 0x1 PUSH1 0xA0 SHL SUB AND DUP2 MSTORE PUSH1 0x1 DUP3 ADD DUP1 SLOAD PUSH1 0x0 SWAP3 SWAP2 PUSH1 0x20 DUP4 ADD SWAP2 PUSH2 0x1BFD SWAP1 PUSH2 0x2EC2 JUMP JUMPDEST DUP1 PUSH1 0x1F ADD PUSH1 0x20 DUP1 SWAP2 DIV MUL PUSH1 0x20 ADD PUSH1 0x40 MLOAD SWAP1 DUP2 ADD PUSH1 0x40 MSTORE DUP1 SWAP3 SWAP2 SWAP1 DUP2 DUP2 MSTORE PUSH1 0x20 ADD DUP3 DUP1 SLOAD PUSH2 0x1C29 SWAP1 PUSH2 0x2EC2 JUMP JUMPDEST DUP1 ISZERO PUSH2 0x1C76 JUMPI DUP1 PUSH1 0x1F LT PUSH2 0x1C4B JUMPI PUSH2 0x100 DUP1 DUP4 SLOAD DIV MUL DUP4 MSTORE SWAP2 PUSH1 0x20 ADD SWAP2 PUSH2 0x1C76 JUMP JUMPDEST DUP3 ADD SWAP2 SWAP1 PUSH1 0x0 MSTORE PUSH1 0x20 PUSH1 0x0 KECCAK256 SWAP1 JUMPDEST DUP2 SLOAD DUP2 MSTORE SWAP1 PUSH1 0x1 ADD SWAP1 PUSH1 0x20 ADD DUP1 DUP4 GT PUSH2 0x1C59 JUMPI DUP3 SWAP1 SUB PUSH1 0x1F AND DUP3 ADD SWAP2 JUMPDEST POP POP POP POP POP DUP2 MSTORE PUSH1 0x20 ADD DUP4 PUSH1 0x2 ADD DUP1 SLOAD PUSH2 0x1C8F SWAP1 PUSH2 0x2EC2 JUMP JUMPDEST DUP1 PUSH1 0x1F ADD PUSH1 0x20 DUP1 SWAP2 DIV MUL PUSH1 0x20 ADD PUSH1 0x40 MLOAD SWAP1 DUP2 ADD PUSH1 0x40 MSTORE DUP1 SWAP3 SWAP2 SWAP1 DUP2 DUP2 MSTORE PUSH1 0x20 ADD DUP3 DUP1 SLOAD PUSH2 0x1CBB SWAP1 PUSH2 0x2EC2 JUMP JUMPDEST DUP1 ISZERO PUSH2 0x1D08 JUMPI DUP1 PUSH1 0x1F LT PUSH2 0x1CDD JUMPI PUSH2 0x100 DUP1 DUP4 SLOAD DIV MUL DUP4 MSTORE SWAP2 PUSH1 0x20 ADD SWAP2 PUSH2 0x1D08 JUMP JUMPDEST DUP3 ADD SWAP2 SWAP1 PUSH1 0x0 MSTORE PUSH1 0x20 PUSH1 0x0 KECCAK256 SWAP1 JUMPDEST DUP2 SLOAD DUP2 MSTORE SWAP1 PUSH1 0x1 ADD SWAP1 PUSH1 0x20 ADD DUP1 DUP4 GT PUSH2 0x1CEB JUMPI DUP3 SWAP1 SUB PUSH1 0x1F AND DUP3 ADD SWAP2 JUMPDEST POP POP POP SWAP2 DUP4 MSTORE POP POP PUSH1 0x3 DUP5 ADD SLOAD PUSH1 0x1 PUSH1 0x1 PUSH1 0xA0 SHL SUB DUP2 AND PUSH1 0x20 DUP4 ADD MSTORE PUSH1 0x1 PUSH1 0xA0 SHL SWAP1 DIV PUSH1 0xFF AND ISZERO ISZERO PUSH1 0x40 SWAP1 SWAP2 ADD MSTORE DUP5 MLOAD SWAP1 SWAP2 POP DUP2 SWAP1 DUP6 SWAP1 DUP6 SWAP1 DUP2 LT PUSH2 0x1D4F JUMPI PUSH2 0x1D4F PUSH2 0x31CC JUMP JUMPDEST PUSH1 0x20 MUL PUSH1 0x20 ADD ADD DUP2 SWAP1 MSTORE POP DUP3 DUP1 PUSH2 0x1D65 SWAP1 PUSH2 0x31B3 JUMP JUMPDEST SWAP4 POP POP POP JUMPDEST POP DUP4 PUSH2 0x1D75 DUP2 PUSH2 0x31B3 JUMP JUMPDEST SWAP5 POP POP PUSH2 0x1B6C JUMP JUMPDEST PUSH1 0x60 PUSH1 0x0 DUP1 JUMPDEST PUSH1 0x1 DUP5 ADD SLOAD DUP2 LT ISZERO PUSH2 0x1DEC JUMPI PUSH1 0x0 DUP5 PUSH1 0x1 ADD DUP3 DUP2 SLOAD DUP2 LT PUSH2 0x1DA6 JUMPI PUSH2 0x1DA6 PUSH2 0x31CC JUMP JUMPDEST PUSH1 0x0 SWAP2 DUP3 MSTORE PUSH1 0x20 DUP1 DUP4 KECCAK256 SWAP1 SWAP2 ADD SLOAD PUSH1 0x1 PUSH1 0x1 PUSH1 0xA0 SHL SUB AND DUP1 DUP4 MSTORE SWAP1 DUP8 SWAP1 MSTORE PUSH1 0x40 SWAP1 SWAP2 KECCAK256 SLOAD SWAP1 SWAP2 POP PUSH1 0xFF AND ISZERO PUSH2 0x1DE3 JUMPI DUP3 PUSH2 0x1DDF DUP2 PUSH2 0x31B3 JUMP JUMPDEST SWAP4 POP POP JUMPDEST POP PUSH1 0x1 ADD PUSH2 0x1D83 JUMP JUMPDEST PUSH1 0x0 DUP3 PUSH1 0x1 PUSH1 0x1 PUSH1 0x40 SHL SUB DUP2 GT ISZERO PUSH2 0x1E06 JUMPI PUSH2 0x1E06 PUSH2 0x2D35 JUMP JUMPDEST PUSH1 0x40 MLOAD SWAP1 DUP1 DUP3 MSTORE DUP1 PUSH1 0x20 MUL PUSH1 0x20 ADD DUP3 ADD PUSH1 0x40 MSTORE DUP1 ISZERO PUSH2 0x1E51 JUMPI DUP2 PUSH1 0x20 ADD JUMPDEST PUSH1 0x40 DUP1 MLOAD PUSH1 0x60 DUP1 DUP3 ADD DUP4 MSTORE DUP2 MSTORE PUSH1 0x0 PUSH1 0x20 DUP1 DUP4 ADD DUP3 SWAP1 MSTORE SWAP3 DUP3 ADD MSTORE DUP3 MSTORE PUSH1 0x0 NOT SWAP1 SWAP3 ADD SWAP2 ADD DUP2 PUSH2 0x1E24 JUMPI SWAP1 POP JUMPDEST POP SWAP1 POP PUSH1 0x0 DUP1 SWAP3 POP JUMPDEST PUSH1 0x1 DUP7 ADD SLOAD DUP4 LT ISZERO PUSH2 0x1FE6 JUMPI PUSH1 0x0 DUP7 PUSH1 0x1 ADD DUP5 DUP2 SLOAD DUP2 LT PUSH2 0x1E7D JUMPI PUSH2 0x1E7D PUSH2 0x31CC JUMP JUMPDEST PUSH1 0x0 SWAP2 DUP3 MSTORE PUSH1 0x20 DUP1 DUP4 KECCAK256 SWAP1 SWAP2 ADD SLOAD PUSH1 0x1 PUSH1 0x1 PUSH1 0xA0 SHL SUB AND DUP1 DUP4 MSTORE SWAP1 DUP10 SWAP1 MSTORE PUSH1 0x40 SWAP1 SWAP2 KECCAK256 SLOAD SWAP1 SWAP2 POP PUSH1 0xFF AND ISZERO PUSH2 0x1FDA JUMPI PUSH1 0x1 PUSH1 0x1 PUSH1 0xA0 SHL SUB DUP2 AND PUSH1 0x0 SWAP1 DUP2 MSTORE PUSH1 0x20 DUP2 SWAP1 MSTORE PUSH1 0x40 SWAP1 DUP2 SWAP1 KECCAK256 DUP2 MLOAD PUSH1 0x60 DUP2 ADD SWAP1 SWAP3 MSTORE DUP1 SLOAD DUP3 SWAP1 DUP3 SWAP1 PUSH2 0x1EDE SWAP1 PUSH2 0x2EC2 JUMP JUMPDEST DUP1 PUSH1 0x1F ADD PUSH1 0x20 DUP1 SWAP2 DIV MUL PUSH1 0x20 ADD PUSH1 0x40 MLOAD SWAP1 DUP2 ADD PUSH1 0x40 MSTORE DUP1 SWAP3 SWAP2 SWAP1 DUP2 DUP2 MSTORE PUSH1 0x20 ADD DUP3 DUP1 SLOAD PUSH2 0x1F0A SWAP1 PUSH2 0x2EC2 JUMP JUMPDEST DUP1 ISZERO PUSH2 0x1F57 JUMPI DUP1 PUSH1 0x1F LT PUSH2 0x1F2C JUMPI PUSH2 0x100 DUP1 DUP4 SLOAD DIV MUL DUP4 MSTORE SWAP2 PUSH1 0x20 ADD SWAP2 PUSH2 0x1F57 JUMP JUMPDEST DUP3 ADD SWAP2 SWAP1 PUSH1 0x0 MSTORE PUSH1 0x20 PUSH1 0x0 KECCAK256 SWAP1 JUMPDEST DUP2 SLOAD DUP2 MSTORE SWAP1 PUSH1 0x1 ADD SWAP1 PUSH1 0x20 ADD DUP1 DUP4 GT PUSH2 0x1F3A JUMPI DUP3 SWAP1 SUB PUSH1 0x1F AND DUP3 ADD SWAP2 JUMPDEST POP POP POP SWAP2 DUP4 MSTORE POP POP PUSH1 0x1 DUP3 ADD SLOAD PUSH1 0x20 SWAP1 SWAP2 ADD SWAP1 PUSH1 0xFF AND PUSH1 0x2 DUP2 GT ISZERO PUSH2 0x1F7E JUMPI PUSH2 0x1F7E PUSH2 0x29CC JUMP JUMPDEST PUSH1 0x2 DUP2 GT ISZERO PUSH2 0x1F8F JUMPI PUSH2 0x1F8F PUSH2 0x29CC JUMP JUMPDEST DUP2 MSTORE PUSH1 0x1 SWAP2 SWAP1 SWAP2 ADD SLOAD PUSH2 0x100 SWAP1 DIV PUSH1 0x1 PUSH1 0x1 PUSH1 0xA0 SHL SUB AND PUSH1 0x20 SWAP1 SWAP2 ADD MSTORE DUP4 MLOAD DUP5 SWAP1 DUP5 SWAP1 DUP2 LT PUSH2 0x1FC0 JUMPI PUSH2 0x1FC0 PUSH2 0x31CC JUMP JUMPDEST PUSH1 0x20 MUL PUSH1 0x20 ADD ADD DUP2 SWAP1 MSTORE POP DUP2 DUP1 PUSH2 0x1FD6 SWAP1 PUSH2 0x31B3 JUMP JUMPDEST SWAP3 POP POP JUMPDEST POP PUSH1 0x1 SWAP1 SWAP3 ADD SWAP2 PUSH2 0x1E5A JUMP JUMPDEST POP SWAP5 SWAP4 POP POP POP POP JUMP JUMPDEST DUP2 MLOAD DUP2 MLOAD PUSH1 0x0 SWAP2 DUP5 SWAP2 DUP5 SWAP2 SWAP1 DUP2 EQ PUSH2 0x200D JUMPI PUSH1 0x0 SWAP4 POP POP POP POP PUSH2 0x2083 JUMP JUMPDEST PUSH1 0x0 JUMPDEST DUP2 DUP2 LT ISZERO PUSH2 0x207A JUMPI DUP3 DUP2 DUP2 MLOAD DUP2 LT PUSH2 0x202A JUMPI PUSH2 0x202A PUSH2 0x31CC JUMP JUMPDEST PUSH1 0x20 ADD ADD MLOAD PUSH1 0xF8 SHR PUSH1 0xF8 SHL PUSH1 0x1 PUSH1 0x1 PUSH1 0xF8 SHL SUB NOT AND DUP5 DUP3 DUP2 MLOAD DUP2 LT PUSH2 0x2051 JUMPI PUSH2 0x2051 PUSH2 0x31CC JUMP JUMPDEST ADD PUSH1 0x20 ADD MLOAD PUSH1 0x1 PUSH1 0x1 PUSH1 0xF8 SHL SUB NOT AND EQ PUSH2 0x2072 JUMPI PUSH1 0x0 SWAP5 POP POP POP POP POP PUSH2 0x2083 JUMP JUMPDEST PUSH1 0x1 ADD PUSH2 0x2010 JUMP JUMPDEST POP PUSH1 0x1 SWAP4 POP POP POP POP JUMPDEST SWAP3 SWAP2 POP POP JUMP JUMPDEST PUSH1 0x40 DUP1 MLOAD DUP1 DUP3 ADD SWAP1 SWAP2 MSTORE PUSH1 0x19 DUP2 MSTORE PUSH32 0x55736572206E6F742070696C6F74206E6F72207369676E657200000000000000 PUSH1 0x20 DUP3 ADD MSTORE SWAP1 JUMP JUMPDEST PUSH1 0x40 DUP1 MLOAD DUP1 DUP3 ADD SWAP1 SWAP2 MSTORE PUSH1 0xF DUP2 MSTORE PUSH15 0x2AB9B2B9103737BA1039B4B3B732B9 PUSH1 0x89 SHL PUSH1 0x20 DUP3 ADD MSTORE SWAP1 JUMP JUMPDEST PUSH1 0x0 DUP1 JUMPDEST CALLER PUSH1 0x0 SWAP1 DUP2 MSTORE PUSH1 0x4 PUSH1 0x20 MSTORE PUSH1 0x40 SWAP1 KECCAK256 SLOAD DUP2 LT ISZERO PUSH2 0x22B1 JUMPI CALLER PUSH1 0x0 SWAP1 DUP2 MSTORE PUSH1 0x4 PUSH1 0x20 MSTORE PUSH1 0x40 DUP2 KECCAK256 PUSH1 0x1 ADD DUP1 SLOAD DUP4 SWAP1 DUP2 LT PUSH2 0x2128 JUMPI PUSH2 0x2128 PUSH2 0x31CC JUMP JUMPDEST PUSH1 0x0 SWAP2 DUP3 MSTORE PUSH1 0x20 SWAP1 SWAP2 KECCAK256 PUSH1 0x4 SWAP1 SWAP2 MUL ADD DUP1 SLOAD SWAP1 SWAP2 POP PUSH1 0x1 PUSH1 0x1 PUSH1 0xA0 SHL SUB DUP8 DUP2 AND SWAP2 AND EQ DUP1 ISZERO PUSH2 0x21E8 JUMPI POP PUSH2 0x21E8 DUP2 PUSH1 0x1 ADD DUP1 SLOAD PUSH2 0x2164 SWAP1 PUSH2 0x2EC2 JUMP JUMPDEST DUP1 PUSH1 0x1F ADD PUSH1 0x20 DUP1 SWAP2 DIV MUL PUSH1 0x20 ADD PUSH1 0x40 MLOAD SWAP1 DUP2 ADD PUSH1 0x40 MSTORE DUP1 SWAP3 SWAP2 SWAP1 DUP2 DUP2 MSTORE PUSH1 0x20 ADD DUP3 DUP1 SLOAD PUSH2 0x2190 SWAP1 PUSH2 0x2EC2 JUMP JUMPDEST DUP1 ISZERO PUSH2 0x21DD JUMPI DUP1 PUSH1 0x1F LT PUSH2 0x21B2 JUMPI PUSH2 0x100 DUP1 DUP4 SLOAD DIV MUL DUP4 MSTORE SWAP2 PUSH1 0x20 ADD SWAP2 PUSH2 0x21DD JUMP JUMPDEST DUP3 ADD SWAP2 SWAP1 PUSH1 0x0 MSTORE PUSH1 0x20 PUSH1 0x0 KECCAK256 SWAP1 JUMPDEST DUP2 SLOAD DUP2 MSTORE SWAP1 PUSH1 0x1 ADD SWAP1 PUSH1 0x20 ADD DUP1 DUP4 GT PUSH2 0x21C0 JUMPI DUP3 SWAP1 SUB PUSH1 0x1F AND DUP3 ADD SWAP2 JUMPDEST POP POP POP POP POP DUP7 PUSH2 0x1FEF JUMP JUMPDEST DUP1 ISZERO PUSH2 0x2285 JUMPI POP PUSH2 0x2285 DUP5 DUP3 PUSH1 0x2 ADD DUP1 SLOAD PUSH2 0x2202 SWAP1 PUSH2 0x2EC2 JUMP JUMPDEST DUP1 PUSH1 0x1F ADD PUSH1 0x20 DUP1 SWAP2 DIV MUL PUSH1 0x20 ADD PUSH1 0x40 MLOAD SWAP1 DUP2 ADD PUSH1 0x40 MSTORE DUP1 SWAP3 SWAP2 SWAP1 DUP2 DUP2 MSTORE PUSH1 0x20 ADD DUP3 DUP1 SLOAD PUSH2 0x222E SWAP1 PUSH2 0x2EC2 JUMP JUMPDEST DUP1 ISZERO PUSH2 0x227B JUMPI DUP1 PUSH1 0x1F LT PUSH2 0x2250 JUMPI PUSH2 0x100 DUP1 DUP4 SLOAD DIV MUL DUP4 MSTORE SWAP2 PUSH1 0x20 ADD SWAP2 PUSH2 0x227B JUMP JUMPDEST DUP3 ADD SWAP2 SWAP1 PUSH1 0x0 MSTORE PUSH1 0x20 PUSH1 0x0 KECCAK256 SWAP1 JUMPDEST DUP2 SLOAD DUP2 MSTORE SWAP1 PUSH1 0x1 ADD SWAP1 PUSH1 0x20 ADD DUP1 DUP4 GT PUSH2 0x225E JUMPI DUP3 SWAP1 SUB PUSH1 0x1F AND DUP3 ADD SWAP2 JUMPDEST POP POP POP POP POP PUSH2 0x1FEF JUMP JUMPDEST ISZERO PUSH2 0x22A8 JUMPI PUSH1 0x3 ADD DUP1 SLOAD PUSH1 0xFF PUSH1 0xA0 SHL NOT AND PUSH1 0x1 PUSH1 0xA0 SHL OR SWAP1 SSTORE POP PUSH1 0x1 SWAP1 POP PUSH2 0x22B7 JUMP JUMPDEST POP PUSH1 0x1 ADD PUSH2 0x20ED JUMP JUMPDEST PUSH1 0x0 SWAP2 POP POP JUMPDEST SWAP4 SWAP3 POP POP POP JUMP JUMPDEST PUSH1 0x1 PUSH1 0x1 PUSH1 0xA0 SHL SUB DUP4 AND PUSH1 0x0 SWAP1 DUP2 MSTORE PUSH1 0x1 PUSH1 0x20 MSTORE PUSH1 0x40 DUP2 KECCAK256 PUSH1 0x2 ADD DUP1 SLOAD DUP3 SWAP2 PUSH2 0x236E SWAP2 PUSH2 0x22EA SWAP1 PUSH2 0x2EC2 JUMP JUMPDEST DUP1 PUSH1 0x1F ADD PUSH1 0x20 DUP1 SWAP2 DIV MUL PUSH1 0x20 ADD PUSH1 0x40 MLOAD SWAP1 DUP2 ADD PUSH1 0x40 MSTORE DUP1 SWAP3 SWAP2 SWAP1 DUP2 DUP2 MSTORE PUSH1 0x20 ADD DUP3 DUP1 SLOAD PUSH2 0x2316 SWAP1 PUSH2 0x2EC2 JUMP JUMPDEST DUP1 ISZERO PUSH2 0x2363 JUMPI DUP1 PUSH1 0x1F LT PUSH2 0x2338 JUMPI PUSH2 0x100 DUP1 DUP4 SLOAD DIV MUL DUP4 MSTORE SWAP2 PUSH1 0x20 ADD SWAP2 PUSH2 0x2363 JUMP JUMPDEST DUP3 ADD SWAP2 SWAP1 PUSH1 0x0 MSTORE PUSH1 0x20 PUSH1 0x0 KECCAK256 SWAP1 JUMPDEST DUP2 SLOAD DUP2 MSTORE SWAP1 PUSH1 0x1 ADD SWAP1 PUSH1 0x20 ADD DUP1 DUP4 GT PUSH2 0x2346 JUMPI DUP3 SWAP1 SUB PUSH1 0x1F AND DUP3 ADD SWAP2 JUMPDEST POP POP POP POP POP DUP6 PUSH2 0x1FEF JUMP JUMPDEST ISZERO PUSH2 0x24F0 JUMPI POP PUSH1 0x1 PUSH1 0x1 PUSH1 0xA0 SHL SUB DUP5 AND PUSH1 0x0 SWAP1 DUP2 MSTORE PUSH1 0x1 PUSH1 0x20 MSTORE PUSH1 0x40 DUP2 KECCAK256 PUSH1 0x2 ADD SWAP1 JUMPDEST DUP2 PUSH1 0x2 ADD SLOAD DUP2 EQ PUSH2 0x24E5 JUMPI PUSH1 0x0 DUP3 PUSH1 0x3 ADD DUP3 DUP2 SLOAD DUP2 LT PUSH2 0x23B3 JUMPI PUSH2 0x23B3 PUSH2 0x31CC JUMP JUMPDEST PUSH1 0x0 SWAP2 DUP3 MSTORE PUSH1 0x20 SWAP1 SWAP2 KECCAK256 PUSH1 0x4 SWAP1 SWAP2 MUL ADD DUP1 SLOAD SWAP1 SWAP2 POP PUSH1 0x1 PUSH1 0x1 PUSH1 0xA0 SHL SUB DUP9 DUP2 AND SWAP2 AND EQ DUP1 ISZERO PUSH2 0x2473 JUMPI POP PUSH2 0x2473 DUP2 PUSH1 0x1 ADD DUP1 SLOAD PUSH2 0x23EF SWAP1 PUSH2 0x2EC2 JUMP JUMPDEST DUP1 PUSH1 0x1F ADD PUSH1 0x20 DUP1 SWAP2 DIV MUL PUSH1 0x20 ADD PUSH1 0x40 MLOAD SWAP1 DUP2 ADD PUSH1 0x40 MSTORE DUP1 SWAP3 SWAP2 SWAP1 DUP2 DUP2 MSTORE PUSH1 0x20 ADD DUP3 DUP1 SLOAD PUSH2 0x241B SWAP1 PUSH2 0x2EC2 JUMP JUMPDEST DUP1 ISZERO PUSH2 0x2468 JUMPI DUP1 PUSH1 0x1F LT PUSH2 0x243D JUMPI PUSH2 0x100 DUP1 DUP4 SLOAD DIV MUL DUP4 MSTORE SWAP2 PUSH1 0x20 ADD SWAP2 PUSH2 0x2468 JUMP JUMPDEST DUP3 ADD SWAP2 SWAP1 PUSH1 0x0 MSTORE PUSH1 0x20 PUSH1 0x0 KECCAK256 SWAP1 JUMPDEST DUP2 SLOAD DUP2 MSTORE SWAP1 PUSH1 0x1 ADD SWAP1 PUSH1 0x20 ADD DUP1 DUP4 GT PUSH2 0x244B JUMPI DUP3 SWAP1 SUB PUSH1 0x1F AND DUP3 ADD SWAP2 JUMPDEST POP POP POP POP POP DUP8 PUSH2 0x1FEF JUMP JUMPDEST DUP1 ISZERO PUSH2 0x248D JUMPI POP PUSH2 0x248D DUP6 DUP3 PUSH1 0x2 ADD DUP1 SLOAD PUSH2 0x2202 SWAP1 PUSH2 0x2EC2 JUMP JUMPDEST ISZERO PUSH2 0x24D2 JUMPI PUSH1 0x3 DUP2 ADD SLOAD PUSH1 0x1 PUSH1 0x1 PUSH1 0xA0 SHL SUB AND CALLER SUB PUSH2 0x24C6 JUMPI PUSH1 0x3 ADD DUP1 SLOAD PUSH1 0xFF PUSH1 0xA0 SHL NOT AND PUSH1 0x1 PUSH1 0xA0 SHL OR SWAP1 SSTORE POP PUSH1 0x1 SWAP2 POP PUSH2 0x22B7 SWAP1 POP JUMP JUMPDEST PUSH1 0x0 SWAP4 POP POP POP POP PUSH2 0x22B7 JUMP JUMPDEST POP DUP1 PUSH2 0x24DD DUP2 PUSH2 0x31B3 JUMP JUMPDEST SWAP2 POP POP PUSH2 0x2391 JUMP JUMPDEST PUSH1 0x0 SWAP3 POP POP POP PUSH2 0x22B7 JUMP JUMPDEST PUSH1 0x0 JUMPDEST PUSH1 0x1 PUSH1 0x1 PUSH1 0xA0 SHL SUB DUP7 AND PUSH1 0x0 SWAP1 DUP2 MSTORE PUSH1 0x1 PUSH1 0x20 MSTORE PUSH1 0x40 SWAP1 KECCAK256 SLOAD DUP2 EQ PUSH2 0x2718 JUMPI PUSH2 0x256A PUSH1 0x1 PUSH1 0x0 DUP9 PUSH1 0x1 PUSH1 0x1 PUSH1 0xA0 SHL SUB AND PUSH1 0x1 PUSH1 0x1 PUSH1 0xA0 SHL SUB AND DUP2 MSTORE PUSH1 0x20 ADD SWAP1 DUP2 MSTORE PUSH1 0x20 ADD PUSH1 0x0 KECCAK256 PUSH1 0x1 ADD DUP3 DUP2 SLOAD DUP2 LT PUSH2 0x254E JUMPI PUSH2 0x254E PUSH2 0x31CC JUMP JUMPDEST SWAP1 PUSH1 0x0 MSTORE PUSH1 0x20 PUSH1 0x0 KECCAK256 SWAP1 PUSH1 0x4 MUL ADD PUSH1 0x0 ADD DUP1 SLOAD PUSH2 0x2164 SWAP1 PUSH2 0x2EC2 JUMP JUMPDEST ISZERO PUSH2 0x2706 JUMPI PUSH1 0x1 PUSH1 0x1 PUSH1 0xA0 SHL SUB DUP7 AND PUSH1 0x0 SWAP1 DUP2 MSTORE PUSH1 0x1 PUSH1 0x20 DUP2 SWAP1 MSTORE PUSH1 0x40 SWAP1 SWAP2 KECCAK256 ADD DUP1 SLOAD DUP3 SWAP1 DUP2 LT PUSH2 0x259D JUMPI PUSH2 0x259D PUSH2 0x31CC JUMP JUMPDEST SWAP1 PUSH1 0x0 MSTORE PUSH1 0x20 PUSH1 0x0 KECCAK256 SWAP1 PUSH1 0x4 MUL ADD SWAP2 POP PUSH1 0x0 JUMPDEST DUP3 PUSH1 0x2 ADD SLOAD DUP2 EQ PUSH2 0x24C6 JUMPI PUSH1 0x0 DUP4 PUSH1 0x3 ADD DUP3 DUP2 SLOAD DUP2 LT PUSH2 0x25D2 JUMPI PUSH2 0x25D2 PUSH2 0x31CC JUMP JUMPDEST PUSH1 0x0 SWAP2 DUP3 MSTORE PUSH1 0x20 SWAP1 SWAP2 KECCAK256 PUSH1 0x4 SWAP1 SWAP2 MUL ADD DUP1 SLOAD SWAP1 SWAP2 POP PUSH1 0x1 PUSH1 0x1 PUSH1 0xA0 SHL SUB DUP10 DUP2 AND SWAP2 AND EQ DUP1 ISZERO PUSH2 0x2692 JUMPI POP PUSH2 0x2692 DUP2 PUSH1 0x1 ADD DUP1 SLOAD PUSH2 0x260E SWAP1 PUSH2 0x2EC2 JUMP JUMPDEST DUP1 PUSH1 0x1F ADD PUSH1 0x20 DUP1 SWAP2 DIV MUL PUSH1 0x20 ADD PUSH1 0x40 MLOAD SWAP1 DUP2 ADD PUSH1 0x40 MSTORE DUP1 SWAP3 SWAP2 SWAP1 DUP2 DUP2 MSTORE PUSH1 0x20 ADD DUP3 DUP1 SLOAD PUSH2 0x263A SWAP1 PUSH2 0x2EC2 JUMP JUMPDEST DUP1 ISZERO PUSH2 0x2687 JUMPI DUP1 PUSH1 0x1F LT PUSH2 0x265C JUMPI PUSH2 0x100 DUP1 DUP4 SLOAD DIV MUL DUP4 MSTORE SWAP2 PUSH1 0x20 ADD SWAP2 PUSH2 0x2687 JUMP JUMPDEST DUP3 ADD SWAP2 SWAP1 PUSH1 0x0 MSTORE PUSH1 0x20 PUSH1 0x0 KECCAK256 SWAP1 JUMPDEST DUP2 SLOAD DUP2 MSTORE SWAP1 PUSH1 0x1 ADD SWAP1 PUSH1 0x20 ADD DUP1 DUP4 GT PUSH2 0x266A JUMPI DUP3 SWAP1 SUB PUSH1 0x1F AND DUP3 ADD SWAP2 JUMPDEST POP POP POP POP POP DUP9 PUSH2 0x1FEF JUMP JUMPDEST DUP1 ISZERO PUSH2 0x26AC JUMPI POP PUSH2 0x26AC DUP7 DUP3 PUSH1 0x2 ADD DUP1 SLOAD PUSH2 0x2202 SWAP1 PUSH2 0x2EC2 JUMP JUMPDEST ISZERO PUSH2 0x26F3 JUMPI PUSH1 0x3 DUP2 ADD SLOAD PUSH1 0x1 PUSH1 0x1 PUSH1 0xA0 SHL SUB AND CALLER SUB PUSH2 0x26E6 JUMPI PUSH1 0x3 ADD DUP1 SLOAD PUSH1 0xFF PUSH1 0xA0 SHL NOT AND PUSH1 0x1 PUSH1 0xA0 SHL OR SWAP1 SSTORE POP PUSH1 0x1 SWAP3 POP PUSH2 0x22B7 SWAP2 POP POP JUMP JUMPDEST PUSH1 0x0 SWAP5 POP POP POP POP POP PUSH2 0x22B7 JUMP JUMPDEST POP DUP1 PUSH2 0x26FE DUP2 PUSH2 0x31B3 JUMP JUMPDEST SWAP2 POP POP PUSH2 0x25B0 JUMP JUMPDEST DUP1 PUSH2 0x2710 DUP2 PUSH2 0x31B3 JUMP JUMPDEST SWAP2 POP POP PUSH2 0x24F3 JUMP JUMPDEST POP PUSH1 0x0 SWAP6 SWAP5 POP POP POP POP POP JUMP JUMPDEST DUP3 DUP1 SLOAD DUP3 DUP3 SSTORE SWAP1 PUSH1 0x0 MSTORE PUSH1 0x20 PUSH1 0x0 KECCAK256 SWAP1 PUSH1 0x4 MUL DUP2 ADD SWAP3 DUP3 ISZERO PUSH2 0x27F7 JUMPI PUSH1 0x0 MSTORE PUSH1 0x20 PUSH1 0x0 KECCAK256 SWAP2 PUSH1 0x4 MUL DUP3 ADD JUMPDEST DUP3 DUP2 GT ISZERO PUSH2 0x27F7 JUMPI DUP3 SLOAD DUP3 SLOAD PUSH1 0x1 PUSH1 0x1 PUSH1 0xA0 SHL SUB NOT AND PUSH1 0x1 PUSH1 0x1 PUSH1 0xA0 SHL SUB SWAP1 SWAP2 AND OR DUP3 SSTORE DUP3 DUP3 PUSH1 0x1 DUP1 DUP3 ADD SWAP1 PUSH2 0x2787 SWAP1 DUP5 ADD DUP3 PUSH2 0x300B JUMP JUMPDEST POP PUSH1 0x2 DUP2 DUP2 ADD SWAP1 PUSH2 0x279A SWAP1 DUP5 ADD DUP3 PUSH2 0x300B JUMP JUMPDEST POP PUSH1 0x3 SWAP2 DUP3 ADD DUP1 SLOAD SWAP2 SWAP1 SWAP3 ADD DUP1 SLOAD PUSH1 0x1 PUSH1 0x1 PUSH1 0xA0 SHL SUB SWAP1 SWAP3 AND PUSH1 0x1 PUSH1 0x1 PUSH1 0xA0 SHL SUB NOT DUP4 AND DUP2 OR DUP3 SSTORE SWAP3 SLOAD PUSH1 0x1 PUSH1 0x1 PUSH1 0xA8 SHL SUB NOT SWAP1 SWAP3 AND SWAP1 SWAP3 OR PUSH1 0x1 PUSH1 0xA0 SHL SWAP2 DUP3 SWAP1 DIV PUSH1 0xFF AND ISZERO ISZERO SWAP1 SWAP2 MUL OR SWAP1 SSTORE PUSH1 0x4 SWAP3 DUP4 ADD SWAP3 SWAP2 SWAP1 SWAP2 ADD SWAP1 PUSH2 0x274F JUMP JUMPDEST POP PUSH2 0x2803 SWAP3 SWAP2 POP PUSH2 0x28B7 JUMP JUMPDEST POP SWAP1 JUMP JUMPDEST POP DUP1 SLOAD PUSH1 0x0 DUP3 SSTORE PUSH1 0x4 MUL SWAP1 PUSH1 0x0 MSTORE PUSH1 0x20 PUSH1 0x0 KECCAK256 SWAP1 DUP2 ADD SWAP1 PUSH2 0x2828 SWAP2 SWAP1 PUSH2 0x28B7 JUMP JUMPDEST POP JUMP JUMPDEST PUSH1 0x40 MLOAD DUP1 PUSH1 0x60 ADD PUSH1 0x40 MSTORE DUP1 PUSH1 0x0 DUP2 MSTORE PUSH1 0x20 ADD PUSH1 0x60 DUP2 MSTORE PUSH1 0x20 ADD PUSH2 0x286F PUSH1 0x40 MLOAD DUP1 PUSH1 0x80 ADD PUSH1 0x40 MSTORE DUP1 PUSH1 0x60 DUP2 MSTORE PUSH1 0x20 ADD PUSH1 0x60 DUP2 MSTORE PUSH1 0x20 ADD PUSH1 0x0 DUP2 MSTORE PUSH1 0x20 ADD PUSH1 0x60 DUP2 MSTORE POP SWAP1 JUMP JUMPDEST SWAP1 MSTORE SWAP1 JUMP JUMPDEST PUSH1 0x40 MLOAD DUP1 PUSH1 0xA0 ADD PUSH1 0x40 MSTORE DUP1 PUSH1 0x0 PUSH1 0x1 PUSH1 0x1 PUSH1 0xA0 SHL SUB AND DUP2 MSTORE PUSH1 0x20 ADD PUSH1 0x60 DUP2 MSTORE PUSH1 0x20 ADD PUSH1 0x60 DUP2 MSTORE PUSH1 0x20 ADD PUSH1 0x0 PUSH1 0x1 PUSH1 0x1 PUSH1 0xA0 SHL SUB AND DUP2 MSTORE PUSH1 0x20 ADD PUSH1 0x0 ISZERO ISZERO DUP2 MSTORE POP SWAP1 JUMP JUMPDEST DUP1 DUP3 GT ISZERO PUSH2 0x2803 JUMPI DUP1 SLOAD PUSH1 0x1 PUSH1 0x1 PUSH1 0xA0 SHL SUB NOT AND DUP2 SSTORE PUSH1 0x0 PUSH2 0x28DC PUSH1 0x1 DUP4 ADD DUP3 PUSH2 0x2905 JUMP JUMPDEST PUSH2 0x28EA PUSH1 0x2 DUP4 ADD PUSH1 0x0 PUSH2 0x2905 JUMP JUMPDEST POP PUSH1 0x3 DUP2 ADD DUP1 SLOAD PUSH1 0x1 PUSH1 0x1 PUSH1 0xA8 SHL SUB NOT AND SWAP1 SSTORE PUSH1 0x4 ADD PUSH2 0x28B7 JUMP JUMPDEST POP DUP1 SLOAD PUSH2 0x2911 SWAP1 PUSH2 0x2EC2 JUMP JUMPDEST PUSH1 0x0 DUP3 SSTORE DUP1 PUSH1 0x1F LT PUSH2 0x2921 JUMPI POP POP JUMP JUMPDEST PUSH1 0x1F ADD PUSH1 0x20 SWAP1 DIV SWAP1 PUSH1 0x0 MSTORE PUSH1 0x20 PUSH1 0x0 KECCAK256 SWAP1 DUP2 ADD SWAP1 PUSH2 0x2828 SWAP2 SWAP1 JUMPDEST DUP1 DUP3 GT ISZERO PUSH2 0x2803 JUMPI PUSH1 0x0 DUP2 SSTORE PUSH1 0x1 ADD PUSH2 0x293B JUMP JUMPDEST DUP1 CALLDATALOAD PUSH1 0x1 PUSH1 0x1 PUSH1 0xA0 SHL SUB DUP2 AND DUP2 EQ PUSH2 0x2966 JUMPI PUSH1 0x0 DUP1 REVERT JUMPDEST SWAP2 SWAP1 POP JUMP JUMPDEST PUSH1 0x0 PUSH1 0x20 DUP3 DUP5 SUB SLT ISZERO PUSH2 0x297D JUMPI PUSH1 0x0 DUP1 REVERT JUMPDEST PUSH2 0x22B7 DUP3 PUSH2 0x294F JUMP JUMPDEST PUSH1 0x0 DUP2 MLOAD DUP1 DUP5 MSTORE PUSH1 0x0 JUMPDEST DUP2 DUP2 LT ISZERO PUSH2 0x29AC JUMPI PUSH1 0x20 DUP2 DUP6 ADD DUP2 ADD MLOAD DUP7 DUP4 ADD DUP3 ADD MSTORE ADD PUSH2 0x2990 JUMP JUMPDEST POP PUSH1 0x0 PUSH1 0x20 DUP3 DUP7 ADD ADD MSTORE PUSH1 0x20 PUSH1 0x1F NOT PUSH1 0x1F DUP4 ADD AND DUP6 ADD ADD SWAP2 POP POP SWAP3 SWAP2 POP POP JUMP JUMPDEST PUSH4 0x4E487B71 PUSH1 0xE0 SHL PUSH1 0x0 MSTORE PUSH1 0x21 PUSH1 0x4 MSTORE PUSH1 0x24 PUSH1 0x0 REVERT JUMPDEST PUSH1 0x0 DUP2 MLOAD PUSH1 0x60 DUP5 MSTORE PUSH2 0x29F7 PUSH1 0x60 DUP6 ADD DUP3 PUSH2 0x2986 JUMP JUMPDEST SWAP1 POP PUSH1 0x20 DUP4 ADD MLOAD PUSH1 0x3 DUP2 LT PUSH2 0x2A1C JUMPI PUSH4 0x4E487B71 PUSH1 0xE0 SHL PUSH1 0x0 MSTORE PUSH1 0x21 PUSH1 0x4 MSTORE PUSH1 0x24 PUSH1 0x0 REVERT JUMPDEST PUSH1 0x20 DUP6 ADD MSTORE PUSH1 0x40 SWAP3 DUP4 ADD MLOAD PUSH1 0x1 PUSH1 0x1 PUSH1 0xA0 SHL SUB AND SWAP3 SWAP1 SWAP4 ADD SWAP2 SWAP1 SWAP2 MSTORE POP SWAP1 JUMP JUMPDEST PUSH1 0x20 DUP2 MSTORE PUSH1 0x0 PUSH2 0x22B7 PUSH1 0x20 DUP4 ADD DUP5 PUSH2 0x29E2 JUMP JUMPDEST PUSH1 0x0 PUSH1 0x20 DUP3 ADD PUSH1 0x20 DUP4 MSTORE DUP1 DUP5 MLOAD DUP1 DUP4 MSTORE PUSH1 0x40 DUP6 ADD SWAP2 POP PUSH1 0x40 DUP2 PUSH1 0x5 SHL DUP7 ADD ADD SWAP3 POP PUSH1 0x20 DUP7 ADD PUSH1 0x0 JUMPDEST DUP3 DUP2 LT ISZERO PUSH2 0x2AA8 JUMPI PUSH1 0x3F NOT DUP8 DUP7 SUB ADD DUP5 MSTORE PUSH2 0x2A93 DUP6 DUP4 MLOAD PUSH2 0x29E2 JUMP JUMPDEST SWAP5 POP PUSH1 0x20 SWAP4 DUP5 ADD SWAP4 SWAP2 SWAP1 SWAP2 ADD SWAP1 PUSH1 0x1 ADD PUSH2 0x2A77 JUMP JUMPDEST POP SWAP3 SWAP7 SWAP6 POP POP POP POP POP POP JUMP JUMPDEST PUSH1 0x0 DUP1 DUP4 PUSH1 0x1F DUP5 ADD SLT PUSH2 0x2AC6 JUMPI PUSH1 0x0 DUP1 REVERT JUMPDEST POP DUP2 CALLDATALOAD PUSH1 0x1 PUSH1 0x1 PUSH1 0x40 SHL SUB DUP2 GT ISZERO PUSH2 0x2ADD JUMPI PUSH1 0x0 DUP1 REVERT JUMPDEST PUSH1 0x20 DUP4 ADD SWAP2 POP DUP4 PUSH1 0x20 DUP3 DUP6 ADD ADD GT ISZERO PUSH2 0x2AF5 JUMPI PUSH1 0x0 DUP1 REVERT JUMPDEST SWAP3 POP SWAP3 SWAP1 POP JUMP JUMPDEST PUSH1 0x0 DUP1 PUSH1 0x0 PUSH1 0x40 DUP5 DUP7 SUB SLT ISZERO PUSH2 0x2B11 JUMPI PUSH1 0x0 DUP1 REVERT JUMPDEST DUP4 CALLDATALOAD PUSH1 0x1 PUSH1 0x1 PUSH1 0x40 SHL SUB DUP2 GT ISZERO PUSH2 0x2B27 JUMPI PUSH1 0x0 DUP1 REVERT JUMPDEST PUSH2 0x2B33 DUP7 DUP3 DUP8 ADD PUSH2 0x2AB4 JUMP JUMPDEST SWAP1 SWAP5 POP SWAP3 POP POP PUSH1 0x20 DUP5 ADD CALLDATALOAD PUSH1 0x3 DUP2 LT PUSH2 0x2B4B JUMPI PUSH1 0x0 DUP1 REVERT JUMPDEST DUP1 SWAP2 POP POP SWAP3 POP SWAP3 POP SWAP3 JUMP JUMPDEST PUSH1 0x0 DUP1 PUSH1 0x20 DUP4 DUP6 SUB SLT ISZERO PUSH2 0x2B69 JUMPI PUSH1 0x0 DUP1 REVERT JUMPDEST DUP3 CALLDATALOAD PUSH1 0x1 PUSH1 0x1 PUSH1 0x40 SHL SUB DUP2 GT ISZERO PUSH2 0x2B7F JUMPI PUSH1 0x0 DUP1 REVERT JUMPDEST PUSH2 0x2B8B DUP6 DUP3 DUP7 ADD PUSH2 0x2AB4 JUMP JUMPDEST SWAP1 SWAP7 SWAP1 SWAP6 POP SWAP4 POP POP POP POP JUMP JUMPDEST PUSH1 0x0 DUP3 DUP3 MLOAD DUP1 DUP6 MSTORE PUSH1 0x20 DUP6 ADD SWAP5 POP PUSH1 0x20 DUP2 PUSH1 0x5 SHL DUP4 ADD ADD PUSH1 0x20 DUP6 ADD PUSH1 0x0 JUMPDEST DUP4 DUP2 LT ISZERO PUSH2 0x2C41 JUMPI DUP5 DUP4 SUB PUSH1 0x1F NOT ADD DUP9 MSTORE DUP2 MLOAD DUP1 MLOAD PUSH1 0x1 PUSH1 0x1 PUSH1 0xA0 SHL SUB AND DUP5 MSTORE PUSH1 0x20 DUP1 DUP3 ADD MLOAD PUSH1 0xA0 SWAP2 DUP7 ADD DUP3 SWAP1 MSTORE SWAP1 PUSH2 0x2BF0 SWAP1 DUP7 ADD DUP3 PUSH2 0x2986 JUMP JUMPDEST SWAP1 POP PUSH1 0x40 DUP3 ADD MLOAD DUP6 DUP3 SUB PUSH1 0x40 DUP8 ADD MSTORE PUSH2 0x2C09 DUP3 DUP3 PUSH2 0x2986 JUMP JUMPDEST PUSH1 0x60 DUP5 DUP2 ADD MLOAD PUSH1 0x1 PUSH1 0x1 PUSH1 0xA0 SHL SUB AND SWAP1 DUP9 ADD MSTORE PUSH1 0x80 SWAP4 DUP5 ADD MLOAD ISZERO ISZERO SWAP4 SWAP1 SWAP7 ADD SWAP3 SWAP1 SWAP3 MSTORE POP POP PUSH1 0x20 SWAP8 DUP9 ADD SWAP8 SWAP2 SWAP1 SWAP2 ADD SWAP1 PUSH1 0x1 ADD PUSH2 0x2BB5 JUMP JUMPDEST POP SWAP1 SWAP7 SWAP6 POP POP POP POP POP POP JUMP JUMPDEST PUSH1 0x0 DUP2 MLOAD PUSH1 0x80 DUP5 MSTORE PUSH2 0x2C62 PUSH1 0x80 DUP6 ADD DUP3 PUSH2 0x2986 JUMP JUMPDEST SWAP1 POP PUSH1 0x20 DUP4 ADD MLOAD DUP5 DUP3 SUB PUSH1 0x20 DUP7 ADD MSTORE PUSH2 0x2C7B DUP3 DUP3 PUSH2 0x2986 JUMP JUMPDEST SWAP2 POP POP PUSH1 0x40 DUP4 ADD MLOAD PUSH1 0x40 DUP6 ADD MSTORE PUSH1 0x60 DUP4 ADD MLOAD DUP5 DUP3 SUB PUSH1 0x60 DUP7 ADD MSTORE PUSH2 0x2C9F DUP3 DUP3 PUSH2 0x2B97 JUMP JUMPDEST SWAP6 SWAP5 POP POP POP POP POP JUMP JUMPDEST PUSH1 0x20 DUP2 MSTORE PUSH1 0x0 PUSH1 0x80 DUP3 ADD DUP4 MLOAD PUSH1 0x20 DUP5 ADD MSTORE PUSH1 0x20 DUP5 ADD MLOAD PUSH1 0x60 PUSH1 0x40 DUP6 ADD MSTORE DUP2 DUP2 MLOAD DUP1 DUP5 MSTORE PUSH1 0xA0 DUP7 ADD SWAP2 POP PUSH1 0xA0 DUP2 PUSH1 0x5 SHL DUP8 ADD ADD SWAP4 POP PUSH1 0x20 DUP4 ADD SWAP3 POP PUSH1 0x0 JUMPDEST DUP2 DUP2 LT ISZERO PUSH2 0x2D16 JUMPI PUSH1 0x9F NOT DUP8 DUP7 SUB ADD DUP4 MSTORE PUSH2 0x2D01 DUP6 DUP6 MLOAD PUSH2 0x2C4D JUMP JUMPDEST SWAP5 POP PUSH1 0x20 SWAP4 DUP5 ADD SWAP4 SWAP3 SWAP1 SWAP3 ADD SWAP2 PUSH1 0x1 ADD PUSH2 0x2CE5 JUMP JUMPDEST POP POP POP POP PUSH1 0x40 DUP5 ADD MLOAD DUP4 DUP3 SUB PUSH1 0x1F NOT ADD PUSH1 0x60 DUP6 ADD MSTORE PUSH2 0x2C9F DUP3 DUP3 PUSH2 0x2C4D JUMP JUMPDEST PUSH4 0x4E487B71 PUSH1 0xE0 SHL PUSH1 0x0 MSTORE PUSH1 0x41 PUSH1 0x4 MSTORE PUSH1 0x24 PUSH1 0x0 REVERT JUMPDEST PUSH1 0x0 DUP3 PUSH1 0x1F DUP4 ADD SLT PUSH2 0x2D5C JUMPI PUSH1 0x0 DUP1 REVERT JUMPDEST DUP2 CALLDATALOAD PUSH1 0x1 PUSH1 0x1 PUSH1 0x40 SHL SUB DUP2 GT ISZERO PUSH2 0x2D75 JUMPI PUSH2 0x2D75 PUSH2 0x2D35 JUMP JUMPDEST PUSH1 0x40 MLOAD PUSH1 0x1F DUP3 ADD PUSH1 0x1F NOT SWAP1 DUP2 AND PUSH1 0x3F ADD AND DUP2 ADD PUSH1 0x1 PUSH1 0x1 PUSH1 0x40 SHL SUB DUP2 GT DUP3 DUP3 LT OR ISZERO PUSH2 0x2DA3 JUMPI PUSH2 0x2DA3 PUSH2 0x2D35 JUMP JUMPDEST PUSH1 0x40 MSTORE DUP2 DUP2 MSTORE DUP4 DUP3 ADD PUSH1 0x20 ADD DUP6 LT ISZERO PUSH2 0x2DBB JUMPI PUSH1 0x0 DUP1 REVERT JUMPDEST DUP2 PUSH1 0x20 DUP6 ADD PUSH1 0x20 DUP4 ADD CALLDATACOPY PUSH1 0x0 SWAP2 DUP2 ADD PUSH1 0x20 ADD SWAP2 SWAP1 SWAP2 MSTORE SWAP4 SWAP3 POP POP POP JUMP JUMPDEST PUSH1 0x0 DUP1 PUSH1 0x0 PUSH1 0x60 DUP5 DUP7 SUB SLT ISZERO PUSH2 0x2DED JUMPI PUSH1 0x0 DUP1 REVERT JUMPDEST PUSH2 0x2DF6 DUP5 PUSH2 0x294F JUMP JUMPDEST SWAP3 POP PUSH1 0x20 DUP5 ADD CALLDATALOAD PUSH1 0x1 PUSH1 0x1 PUSH1 0x40 SHL SUB DUP2 GT ISZERO PUSH2 0x2E11 JUMPI PUSH1 0x0 DUP1 REVERT JUMPDEST PUSH2 0x2E1D DUP7 DUP3 DUP8 ADD PUSH2 0x2D4B JUMP JUMPDEST SWAP3 POP POP PUSH1 0x40 DUP5 ADD CALLDATALOAD PUSH1 0x1 PUSH1 0x1 PUSH1 0x40 SHL SUB DUP2 GT ISZERO PUSH2 0x2E39 JUMPI PUSH1 0x0 DUP1 REVERT JUMPDEST PUSH2 0x2E45 DUP7 DUP3 DUP8 ADD PUSH2 0x2D4B JUMP JUMPDEST SWAP2 POP POP SWAP3 POP SWAP3 POP SWAP3 JUMP JUMPDEST PUSH1 0x0 DUP1 PUSH1 0x40 DUP4 DUP6 SUB SLT ISZERO PUSH2 0x2E62 JUMPI PUSH1 0x0 DUP1 REVERT JUMPDEST DUP3 CALLDATALOAD PUSH1 0x1 PUSH1 0x1 PUSH1 0x40 SHL SUB DUP2 GT ISZERO PUSH2 0x2E78 JUMPI PUSH1 0x0 DUP1 REVERT JUMPDEST PUSH2 0x2E84 DUP6 DUP3 DUP7 ADD PUSH2 0x2D4B JUMP JUMPDEST SWAP3 POP POP PUSH2 0x2E93 PUSH1 0x20 DUP5 ADD PUSH2 0x294F JUMP JUMPDEST SWAP1 POP SWAP3 POP SWAP3 SWAP1 POP JUMP JUMPDEST PUSH1 0x20 DUP2 MSTORE PUSH1 0x0 PUSH2 0x22B7 PUSH1 0x20 DUP4 ADD DUP5 PUSH2 0x2B97 JUMP JUMPDEST PUSH1 0x20 DUP2 MSTORE PUSH1 0x0 PUSH2 0x22B7 PUSH1 0x20 DUP4 ADD DUP5 PUSH2 0x2986 JUMP JUMPDEST PUSH1 0x1 DUP2 DUP2 SHR SWAP1 DUP3 AND DUP1 PUSH2 0x2ED6 JUMPI PUSH1 0x7F DUP3 AND SWAP2 POP JUMPDEST PUSH1 0x20 DUP3 LT DUP2 SUB PUSH2 0x3DF JUMPI PUSH4 0x4E487B71 PUSH1 0xE0 SHL PUSH1 0x0 MSTORE PUSH1 0x22 PUSH1 0x4 MSTORE PUSH1 0x24 PUSH1 0x0 REVERT JUMPDEST PUSH1 0x1F DUP3 GT ISZERO PUSH2 0x948 JUMPI DUP1 PUSH1 0x0 MSTORE PUSH1 0x20 PUSH1 0x0 KECCAK256 PUSH1 0x1F DUP5 ADD PUSH1 0x5 SHR DUP2 ADD PUSH1 0x20 DUP6 LT ISZERO PUSH2 0x2F1D JUMPI POP DUP1 JUMPDEST PUSH1 0x1F DUP5 ADD PUSH1 0x5 SHR DUP3 ADD SWAP2 POP JUMPDEST DUP2 DUP2 LT ISZERO PUSH2 0x13DC JUMPI PUSH1 0x0 DUP2 SSTORE PUSH1 0x1 ADD PUSH2 0x2F29 JUMP JUMPDEST PUSH1 0x0 NOT PUSH1 0x3 DUP4 SWAP1 SHL SHR NOT AND PUSH1 0x1 SWAP2 SWAP1 SWAP2 SHL OR SWAP1 JUMP JUMPDEST PUSH1 0x1 PUSH1 0x1 PUSH1 0x40 SHL SUB DUP4 GT ISZERO PUSH2 0x2F69 JUMPI PUSH2 0x2F69 PUSH2 0x2D35 JUMP JUMPDEST PUSH2 0x2F7D DUP4 PUSH2 0x2F77 DUP4 SLOAD PUSH2 0x2EC2 JUMP JUMPDEST DUP4 PUSH2 0x2EF6 JUMP JUMPDEST PUSH1 0x0 PUSH1 0x1F DUP5 GT PUSH1 0x1 DUP2 EQ PUSH2 0x2FAB JUMPI PUSH1 0x0 DUP6 ISZERO PUSH2 0x2F99 JUMPI POP DUP4 DUP3 ADD CALLDATALOAD JUMPDEST PUSH2 0x2FA3 DUP7 DUP3 PUSH2 0x2F3D JUMP JUMPDEST DUP5 SSTORE POP PUSH2 0x13DC JUMP JUMPDEST PUSH1 0x0 DUP4 DUP2 MSTORE PUSH1 0x20 SWAP1 KECCAK256 PUSH1 0x1F NOT DUP7 AND SWAP1 DUP4 JUMPDEST DUP3 DUP2 LT ISZERO PUSH2 0x2FDC JUMPI DUP7 DUP6 ADD CALLDATALOAD DUP3 SSTORE PUSH1 0x20 SWAP5 DUP6 ADD SWAP5 PUSH1 0x1 SWAP1 SWAP3 ADD SWAP2 ADD PUSH2 0x2FBC JUMP JUMPDEST POP DUP7 DUP3 LT ISZERO PUSH2 0x2FF9 JUMPI PUSH1 0x0 NOT PUSH1 0xF8 DUP9 PUSH1 0x3 SHL AND SHR NOT DUP5 DUP8 ADD CALLDATALOAD AND DUP2 SSTORE JUMPDEST POP POP PUSH1 0x1 DUP6 PUSH1 0x1 SHL ADD DUP4 SSTORE POP POP POP POP POP JUMP JUMPDEST DUP2 DUP2 SUB PUSH2 0x3016 JUMPI POP POP JUMP JUMPDEST PUSH2 0x3020 DUP3 SLOAD PUSH2 0x2EC2 JUMP JUMPDEST PUSH1 0x1 PUSH1 0x1 PUSH1 0x40 SHL SUB DUP2 GT ISZERO PUSH2 0x3037 JUMPI PUSH2 0x3037 PUSH2 0x2D35 JUMP JUMPDEST PUSH2 0x304B DUP2 PUSH2 0x3045 DUP5 SLOAD PUSH2 0x2EC2 JUMP JUMPDEST DUP5 PUSH2 0x2EF6 JUMP JUMPDEST PUSH1 0x0 PUSH1 0x1F DUP3 GT PUSH1 0x1 DUP2 EQ PUSH2 0x3079 JUMPI PUSH1 0x0 DUP4 ISZERO PUSH2 0x3067 JUMPI POP DUP5 DUP3 ADD SLOAD JUMPDEST PUSH2 0x3071 DUP5 DUP3 PUSH2 0x2F3D JUMP JUMPDEST DUP6 SSTORE POP PUSH2 0x13DC JUMP JUMPDEST PUSH1 0x0 DUP6 DUP2 MSTORE PUSH1 0x20 SWAP1 KECCAK256 PUSH1 0x1F NOT DUP5 AND SWAP1 PUSH1 0x0 DUP7 DUP2 MSTORE PUSH1 0x20 SWAP1 KECCAK256 DUP5 JUMPDEST DUP4 DUP2 LT ISZERO PUSH2 0x30B3 JUMPI DUP3 DUP7 ADD SLOAD DUP3 SSTORE PUSH1 0x1 SWAP6 DUP7 ADD SWAP6 SWAP1 SWAP2 ADD SWAP1 PUSH1 0x20 ADD PUSH2 0x3093 JUMP JUMPDEST POP DUP6 DUP4 LT ISZERO PUSH2 0x30D1 JUMPI DUP2 DUP6 ADD SLOAD PUSH1 0x0 NOT PUSH1 0x3 DUP9 SWAP1 SHL PUSH1 0xF8 AND SHR NOT AND DUP2 SSTORE JUMPDEST POP POP POP POP POP PUSH1 0x1 SWAP1 DUP2 SHL ADD SWAP1 SSTORE POP JUMP JUMPDEST PUSH4 0x4E487B71 PUSH1 0xE0 SHL PUSH1 0x0 MSTORE PUSH1 0x11 PUSH1 0x4 MSTORE PUSH1 0x24 PUSH1 0x0 REVERT JUMPDEST DUP1 DUP3 ADD DUP1 DUP3 GT ISZERO PUSH2 0x2083 JUMPI PUSH2 0x2083 PUSH2 0x30E1 JUMP JUMPDEST DUP2 MLOAD PUSH1 0x1 PUSH1 0x1 PUSH1 0x40 SHL SUB DUP2 GT ISZERO PUSH2 0x3123 JUMPI PUSH2 0x3123 PUSH2 0x2D35 JUMP JUMPDEST PUSH2 0x3131 DUP2 PUSH2 0x3045 DUP5 SLOAD PUSH2 0x2EC2 JUMP JUMPDEST PUSH1 0x20 PUSH1 0x1F DUP3 GT PUSH1 0x1 DUP2 EQ PUSH2 0x3156 JUMPI PUSH1 0x0 DUP4 ISZERO PUSH2 0x3067 JUMPI POP DUP5 DUP3 ADD MLOAD PUSH2 0x3071 DUP5 DUP3 PUSH2 0x2F3D JUMP JUMPDEST PUSH1 0x0 DUP5 DUP2 MSTORE PUSH1 0x20 DUP2 KECCAK256 PUSH1 0x1F NOT DUP6 AND SWAP2 JUMPDEST DUP3 DUP2 LT ISZERO PUSH2 0x3186 JUMPI DUP8 DUP6 ADD MLOAD DUP3 SSTORE PUSH1 0x20 SWAP5 DUP6 ADD SWAP5 PUSH1 0x1 SWAP1 SWAP3 ADD SWAP2 ADD PUSH2 0x3166 JUMP JUMPDEST POP DUP5 DUP3 LT ISZERO PUSH2 0x31A4 JUMPI DUP7 DUP5 ADD MLOAD PUSH1 0x0 NOT PUSH1 0x3 DUP8 SWAP1 SHL PUSH1 0xF8 AND SHR NOT AND DUP2 SSTORE JUMPDEST POP POP POP POP PUSH1 0x1 SWAP1 DUP2 SHL ADD SWAP1 SSTORE POP JUMP JUMPDEST PUSH1 0x0 PUSH1 0x1 DUP3 ADD PUSH2 0x31C5 JUMPI PUSH2 0x31C5 PUSH2 0x30E1 JUMP JUMPDEST POP PUSH1 0x1 ADD SWAP1 JUMP JUMPDEST PUSH4 0x4E487B71 PUSH1 0xE0 SHL PUSH1 0x0 MSTORE PUSH1 0x32 PUSH1 0x4 MSTORE PUSH1 0x24 PUSH1 0x0 REVERT INVALID LOG2 PUSH5 0x6970667358 0x22 SLT KECCAK256 0xE BLOBBASEFEE 0xB2 SWAP12 JUMPDEST 0x29 DUP11 DELEGATECALL 0x25 0xF EXP 0xEC 0x4C GT 0xDB 0x2A 0xC4 0x22 0x25 DIV 0xC2 0xC2 PUSH30 0xFC6AAA82BA54F7A14664736F6C634300081A003300000000000000000000 "},"methodIdentifiers":{"addEntryToCurrentLogbook(string)":"63ca5057","addEntryWithValidator(string,address)":"d604363e","closeCurrentLogbook()":"51cb4a79","getAllowedPilotProfiles()":"2044baea","getEntriesToValidate()":"f37d3efa","getGrantedPermissionsToOthers()":"4faf9cad","getLogbooks(address)":"63e0b4c4","getProfile(address)":"0f53a470","getSenderAddress()":"42948e18","getUserProfile(address)":"987ee156","getValidatedEntries()":"fff2dee4","giveLogbookPermission(address)":"b672140d","promoteToSigner()":"a1f16ca0","registerProfile(string,uint8)":"309f9caf","revokeLogbookPermission(address)":"58b0126c","validateEntry(address,string,string)":"bc569f07"}}}}}