{"contracts/Licenses.sol":{"Licenses":{"abi":[{"inputs":[{"internalType":"address","name":"","type":"address"}],"name":"licenses","outputs":[{"internalType":"bytes32","name":"","type":"bytes32"}],"stateMutability":"view","type":"function"}],"evm":{"bytecode":{"linkReferences":{},"object":"6080604052348015600f57600080fd5b5060c080601d6000396000f3fe6080604052348015600f57600080fd5b506004361060285760003560e01c8063f18a02c614602d575b600080fd5b604a6038366004605c565b60006020819052908152604090205481565b60405190815260200160405180910390f35b600060208284031215606d57600080fd5b81356001600160a01b0381168114608357600080fd5b939250505056fea26469706673582212203525f7045bb8a9ba44c1911d245a5d61e28d9e01ede34a64c430ccfad103eba264736f6c634300081a0033","opcodes":"PUSH1 0x80 PUSH1 0x40 MSTORE CALLVALUE DUP1 ISZERO PUSH1 0xF JUMPI PUSH1 0x0 DUP1 REVERT JUMPDEST POP PUSH1 0xC0 DUP1 PUSH1 0x1D PUSH1 0x0 CODECOPY PUSH1 0x0 RETURN INVALID PUSH1 0x80 PUSH1 0x40 MSTORE CALLVALUE DUP1 ISZERO PUSH1 0xF JUMPI PUSH1 0x0 DUP1 REVERT JUMPDEST POP PUSH1 0x4 CALLDATASIZE LT PUSH1 0x28 JUMPI PUSH1 0x0 CALLDATALOAD PUSH1 0xE0 SHR DUP1 PUSH4 0xF18A02C6 EQ PUSH1 0x2D JUMPI JUMPDEST PUSH1 0x0 DUP1 REVERT JUMPDEST PUSH1 0x4A PUSH1 0x38 CALLDATASIZE PUSH1 0x4 PUSH1 0x5C JUMP JUMPDEST PUSH1 0x0 PUSH1 0x20 DUP2 SWAP1 MSTORE SWAP1 DUP2 MSTORE PUSH1 0x40 SWAP1 KECCAK256 SLOAD DUP2 JUMP JUMPDEST PUSH1 0x40 MLOAD SWAP1 DUP2 MSTORE PUSH1 0x20 ADD PUSH1 0x40 MLOAD DUP1 SWAP2 SUB SWAP1 RETURN JUMPDEST PUSH1 0x0 PUSH1 0x20 DUP3 DUP5 SUB SLT ISZERO PUSH1 0x6D JUMPI PUSH1 0x0 DUP1 REVERT JUMPDEST DUP2 CALLDATALOAD PUSH1 0x1 PUSH1 0x1 PUSH1 0xA0 SHL SUB DUP2 AND DUP2 EQ PUSH1 0x83 JUMPI PUSH1 0x0 DUP1 REVERT JUMPDEST SWAP4 SWAP3 POP POP POP JUMP INVALID LOG2 PUSH5 0x6970667358 0x22 SLT KECCAK256 CALLDATALOAD 0x25 0xF7 DIV JUMPDEST 0xB8 0xA9 0xBA PREVRANDAO 0xC1 SWAP2 SAR 0x24 GAS TSTORE PUSH2 0xE28D SWAP15 ADD 0xED 0xE3 BLOBBASEFEE PUSH5 0xC430CCFAD1 SUB 0xEB LOG2 PUSH5 0x736F6C6343 STOP ADDMOD BYTE STOP CALLER "},"methodIdentifiers":{"licenses(address)":"f18a02c6"}}}}}